:100000000C941C080C944B080C944B080C944B0853
:100010000C944B080C944B080C944B080C944B0814
:100020000C944B080C94FE0A0C944B080C944B084F
:100030000C944B080C947D6E0C944B080C944B085C
:100040000C944B080C944B080C944B080C944B08E4
:100050000C9497340C94802C0C944B080C94B28222
:100060000C944B080C94FF2C0C944B080C944B08EC
:100070000C944B080C944B080C944B080C944B08B4
:100080000C941F6D0C944B080C944B080C944B086B
:100090000C942E2D0C944B080C944B080C947DA4BE
:1000A0000C944B080C944B080C944B080C944B0884
:1000B0000C944B080C944B080C944B080C944B0874
:1000C0000C944B080C944B080C944B080C944B0864
:1000D0000C944B080C944B080C944B080C944B0854
:1000E0000C944B080C9450340C945A340C944634B1
:1000F0000C9406340C948B340C947C340C94703433
:100100000C9464340C944B080C944B080C944B08DE
:100110000C944B080C944B080C944B080C944B0813
:10012000C3A5C6A5B9A5BDA5FDA5CAA5CEA5D4A53F
:10013000D8A5DCA5E2A5E6A5EAA5FDA5F0A5F4A550
:10014000F8A58745A64525461447344754475C47DC
:100150000947036EDB363D9A9999993DABAAAA2AC5
:100160003E000000803F084AD73B3BCE016E84BC76
:10017000BFFDC12F3D6C74319ABD56833DDA3D0001
:10018000C77F11BED9E4BB4C3E916BAAAABE00004A
:1001900000803F072C7AA5BA6CC590DA3B9365FCCA
:1001A0008BBC53F810FD3C5692834DBD879D3AB6EB
:1001B0003DCBC9BF5BBE73DA0FC93F6E616E00698C
:1001C0006E660001B202FFFF0190040923A1350110
:1001D0006A02060001600800000000000000000044
:1001E0006004400000000162020000006004004062
:1001F0000000037B034CCD6C03AB033656760068DE
:100200000402CB47A202180400058BC1010C0400B4
:10021000000000037F060CC92C97979703890326DB
:100220004666006C02200002400400000000024408
:10023000040000000002480400000000024C04001A
:1002400000000002500400000000025404000000FE
:100250000002580400000000025C040000000002DC
:10026000BC040000000001EC0400004000037F0615
:100270000CC92C9797970402030D355D0409048778
:100280002D353D00A3010000000001078601FE0797
:100290004105F120283038077E01300746019A07D2
:1002A0004704F1283038076C04F128303802160270
:1002B0000001FB00003E000B0036000100020003BD
:1002C000000000650054FFEF0000FA80000B12826E
:1002D000000100020000000000000000000000001B
:1002E000000000280000FFFF4581FFFFFA720000B8
:1002F0000000000003E80000000100017FFFFFFE96
:100300008001001B00000000000000000000000051
:100310000000003E03304000000002CAE3093E80B6
:10032000000020000000000000004000000060000D
:10033000000041FF000000000B2A000016550000DD
:100340002182FD872650FD800000001F000000056F
:100350008000000000000001000000020000000317
:100360000000400000000000046F00026532000041
:100370005EC040000000000000000000000000001F
:100380000000FB8C6F5DFD5D08D9007C733B006C49
:1003900012CC3200139D3200D0D63200080040004B
:1003A00001F4FFE68079020000000000D0D60000D2
:1003B0002710FB00000040000000000000000000CB
:1003C000000000000001000000000000010001002A
:1003D00000000000FA36FFBC308E0005FBF0FFD9AC
:1003E0005BC8FFD09ABE000010A9FFF41EB200CE79
:1003F000BBF7000000010000000400020002020040
:10040000000CFFC280000001800000CF800040008F
:1004100000000000000100000000000006000000D5
:1004200000140000000000000000000000000000B8
:1004300000000000000000000000000000000000BC
:1004400000000000000000000000000000000000AC
:10045000000000000000033F68B6793528BCC67E66
:10046000D16C80000000400000000000B26A000073
:100470000000000000000000000000003FF000004D
:10048000003000000000000000000000000000003C
:10049000000000000000000000000000000000005C
:1004A00000000000254D002F706D000005AE000C0F
:1004B00002D00000000000650054FFEF00000000C3
:1004C0000000000001000044000000000C000000DB
:1004D0000100000000000065000000540000FFEF74
:1004E000000000000000000000000000000000000C
:1004F00000004000000000000000000000000000BC
:1005000000004000000000000000000000000000AB
:1005100000000000000100000002000000000000D8
:1005200000000000000000000000000000000000CB
:1005300000000000000000000000000000000000BB
:100540000000001B00000000000000000000000090
:10055000000000000000000000000000000000009B
:10056000000000000000000000000000000040004B
:100570000000001B00000000000000000000000060
:10058000000000000000000000000000000000006B
:10059000000000000000000000000000000000005B
:1005A000000000000000000000000000000000004B
:1005B0000000D8DCBAA2F1DEB2B8B4A88191F74A43
:1005C000907F916AF3F9DBA8F9B0BAA080F2CE81EE
:1005D000F3C2F1C1F2C3F3CCA2B280F1C6D880BAA3
:1005E000A7DFDFDFF2A7C3CBC5B6F087A29424480C
:1005F000703C95406834589B78A2F183922D557DCC
:10060000D8B1B4B8A1D09180F270F370F27C80A818
:10061000F101B09887D943D886C988BAA1F20EB83B
:100620009780F1A9DFDFDFAADFDFDFF2AAC5CDC740
:10063000A90CC92C97979797F1A989264666B0B45B
:10064000BA80ACDEF2CAF1B28C02A9B69800890E6B
:10065000161EB8A9B4992C547CB08AA89636567642
:10066000F1B9AFB4B083C0B8A89711B18F98B9AF42
:10067000F0240844106418F1A329557DAF83B59385
:10068000AFF0002850F1A3869F61A6DADEDFD9FA29
:10069000A38696DB31A6D9F8DFBAA68FC2C5C7B24A
:1006A0008CC1B8A2DFDFDFA3DFDFDFD8D8F1B8A8C5
:1006B000B286B4980D355DB8AA98B0872D353DB295
:1006C000B6BAAF8C96198F9FA70E161EB49AB8AA09
:1006D000872C547CB9A3DEDFDFA3B180F2C4CDC97F
:1006E000F1B8A9B499830D355D89B9A32D557DB5B0
:1006F00093A30E161EA92C547CB8B4B0F19783A80E
:100700001184A50998A383F0DA240844106418D84A
:10071000F1A529557DA58595021A2E3A565A4048CD
:10072000F9F3A3D9F8F09883240844106418978249
:10073000A8F111F098A2240844106418DAF3DED866
:1007400083A59401D9A302F1A2C3C5C7D8F18492AD
:10075000A24DDA2AD84869D92AD86855DA32D85051
:1007600071D932D8705DDA3AD85879D93AD87893B5
:10077000A34DDA2AD84869D92AD86855DA32D85030
:1007800071D932D8705DDA3AD85879D93AD878A880
:100790008A9AF02850789EF38818F19F1D98A8D95E
:1007A00008D8C89F129EF315A8DA1210D8F1AFC866
:1007B000978734B5B994A421F3D922D8F22DF3D96F
:1007C0002AD8F235F3D932D881A4606061D961D8D2
:1007D0006C6869D969D8747071D971D8B1A384195A
:1007E0003D5DA3831A3E5E931030811011B8B0AF07
:1007F0008F94F2DA3ED8B49AA88729DAF8D8879A83
:1008000035DAF8D8879A3DDAF8D8B1B9A4988502D4
:100810002E56A581000C14A397B08AF12DD928D8A3
:100820004DD948D86DD968D8B1840DDA0ED8A3292E
:1008300083DA2C0ED8A3844983DA2C4C0ED8B8B0B6
:10084000A88A9AF520AADADFD8A840AAD0DADED89A
:10085000A860AADAD0DFD8F19786A8319B0699075D
:10086000AB9728889BF00C201440B8B0B4A88C9C9F
:10087000F0042851791D301438B282ABD0982C5036
:100880005078789BF11AB0F08A9CA82951798B296D
:1008900051798A2470598B2058718A4469388B3970
:1008A00040688A6448318B304960A58820097158B6
:1008B0004468113964493019F1AC002C547CF08C37
:1008C000A804285078F1889726A85998AC8C02265D
:1008D0004666F0899CA82951792470594469386486
:1008E0004831A98809205970AB11384069A81931DD
:1008F00048608CA83C415C207C00F187981986A850
:100900006E767EA999882D557D9EB9A38A228A6E1E
:100910008A568A5E9FB183062646660E2E4E6E9DCF
:10092000B8AD002C547CF2B18CB499B9A32D557D8F
:100930008191AC38AD3AB58391AC2DD928D84DD939
:1009400048D86DD968D88C9DAE29D904AED851D974
:1009500004AED879D904D881F39DAD008DAE19814C
:10096000ADD901D8F2AEDA26D88E912983A7D9ADB8
:10097000ADADADF32AD8D8F1B0AC89913E5E76F337
:10098000AC2E2EF1B18C5A9CAC2C2828289CAC3073
:1009900018A8988128343C9724A728343C9C24F23A
:1009A000B089AC912C4C6C8A9B2DD9D8D851D9D810
:1009B000D879D9D8D8F19E88A331DAD8D8912DD951
:1009C00028D84DD948D86DD968D8B18393353D80A2
:1009D00025DAD8D88569DAD8D8B49381A328343CED
:1009E000F3AB8BF8A391B609B4D9ABDEFAB0879C10
:1009F000B9A3DDF1A3A3A3A395F1A3A3A39DF1A3A1
:100A0000A3A3A3F2A3B49080F2A3A3A3A3A3A3A33D
:100A1000A3A3A3B2A3A3A3A3A3A3B087B599F1A350
:100A2000A3A398F1A3A3A3A397A3A3A3A3F39BA317
:100A3000A3DCB9A7F1262626D8D8FF0000090A02B0
:100A4000080B0C0D07060304010000000000000065
:100A50000000000000000000000000000000000096
:100A60000000000000000011100F00000000000056
:100A70000000000000000000000000000000000076
:100A800000010210202008081020401020408002A1
:100A900001020108040201010204081020408080C4
:100AA0004020100804020180040201804020100848
:100AB0000402010804020101020408102040800120
:100AC00002040810204080050505050705080808F0
:100AD00008020202020A0A080804040404010101CF
:100AE00001010101010303030303030303040707D7
:100AF000070C0C0C0C0C0C0C0C0202020206060675
:100B000006060606060B0B0B0B0B0B0B0B0000204F
:100B1000002300260029002C002F003200000100D5
:100B20000003010601090100002200250028002B16
:100B3000002E003100340002010000050108010B05
:100B40000100002100240027002A002D003000337E
:100B50000001010000040107010A01257325730A41
:100B6000002578003A003A3A004E657665722D7598
:100B700073656420737461636B203E20256420627A
:100B8000797465730A000A2D2D2D2D2D2D2D2D2DF7
:100B90000A0020203C6E6F6E653E002920256C7592
:100BA000730A002F2575202876696120000A526F8C
:100BB00075746573205B2575206D61785D0A002072
:100BC000203C6E6F6E653E000A000A4E65696768DC
:100BD000626F7273205B2575206D61785D0A000A73
:100BE000000A416464726573736573205B25752028
:100BF0006D61785D0A004F6E6C696E650A00257341
:100C00002025732C206368616E6E656C202575202D
:100C10002C20636865636B207261746520257520E4
:100C2000487A20747820706F7765722025750A00E5
:100C30004555492D3634204D41433A2025782D2500
:100C4000782D25782D25782D25782D25782D25783A
:100C50002D25780A0052616E646F6D204555493626
:100C60003420616464726573732067656E657261B8
:100C70007465640A000A2A2A2A2A2A2A2A426F6FDD
:100C800074696E672025732A2A2A2A2A2A2A0A00CA
:100C9000454550524F4D20697320636F72727570D5
:100CA000742C20726577726974696E672077697435
:100CB000682064656661756C74732E0A006C6F63DE
:100CC000616C686F73740041544D4547413132384F
:100CD0007266613100020000FFFE00000145202520
:100CE000642E256420636C6F636B20256C75206314
:100CF000707520256C75206C706D20256C752069D1
:100D0000727120256C7520676C656420256C7520D8
:100D1000796C656420256C7520726C656420256C87
:100D20007520747820256C75206C697374656E204D
:100D3000256C752073656E736F727320256C75203A
:100D400073657269616C20256C750A0053202564F7
:100D50002E256420636C6F636B20256C752074787E
:100D600020256C7520727820256C7520727478208F
:100D7000256C752072727820256C75207265786DEF
:100D8000697420256C752061636B747820256C75FF
:100D9000206E6F61636B747820256C752061636BC6
:100DA000727820256C752074696D65646F75742088
:100DB000256C752062616461636B727820256C75A7
:100DC00020746F6F6C6F6E6720256C7520746F6F69
:100DD00073686F727420256C752062616473796E1C
:100DE000636820256C752062616463726320256CE2
:100DF0007520636F6E74656E74696F6E64726F7068
:100E000020256C752073656E64696E6764726F70FF
:100E100020256C75206C6C747820256C75206C6CAA
:100E2000727820256C750A004641494C3A2D3437BA
:100E300020746F74616C5F726561643D25640A00A3
:100E40004641494C3A2D343620723D25640A00460D
:100E500041494C3A2D34352C20746F74616C5F72AB
:100E60006561643D256420723D25640A00436F7509
:100E70006E743A25642C20723D25640A004641496F
:100E80004C3A2D343120746F74616C5F726561640B
:100E90003D25640A004641494C3A2D343020723DCC
:100EA00025640A004641494C3A2D33392C20746F91
:100EB00074616C5F726561643D256420723D2564D8
:100EC0000A00436F756E743A25642C20723D2564C8
:100ED0000A004641494C3A2D333520746F74616CD9
:100EE0005F726561643D25640A004641494C3A2DB4
:100EF000333520723D25640A00436F756E743A25C0
:100F0000642C20723D25640A006275665B25645D71
:100F100020213D2025640A0072203D2025640A001E
:100F2000723D25642E206275665B725D3D25640A04
:100F300000723D25640A0000407A10F35A00A07246
:100F40004E18090010A5D4E80000E8764817000004
:100F5000E40B54020000CA9A3B000000E1F50500D2
:100F60000080969800000040420F000000A086011B
:100F7000000000102700000000E8030000000064EB
:100F800000000000000A0000000000010000000056
:100F9000002C76D888DC674F0823DFC1DFAE59E12B
:100FA000B1B796E5E3E453C63AE651997696E8E69A
:100FB000C28426EB898C9B62ED407C6FFCEFBC9C6D
:100FC0009F40F2BAA56FA5F490055A2AF75C936B7F
:100FD0006CF9676DC11BFCE0E40D47FEF520E6B53A
:100FE00000D0ED902E0300943577050080841E0814
:100FF0000000204E0A000000C80C333333330F9832
:101000006E12831141EF8D2114893BE65516CFFEF8
:10101000E6DB18D1844B381BF77C1D901DA4BBE484
:1010200024203284725E228100C9F124ECA1E53DC6
:1010300027001681AE82848111241FBECFEFD1E438
:10104000DEBFCDBF1FE0A0E0B2E0E6ECFAE701E0D2
:101050000BBF02C007900D92AA31B107D9F71AE36E
:10106000AAE1BFE001C01D92AA34B107E1F710E187
:10107000C6E3D0E100E006C022970109FE010BBFE4
:101080000E941EB4C233D10780E00807A9F70E946E
:1010900051B20C9451BD0C940000CF92DF92EF92AC
:1010A000FF920F931F93CF93DF93CDB7DEB7609777
:1010B0000FB6F894DEBF0FBECDBF7C01CA01F701A9
:1010C00020813181232B09F063C06AED74E00E9416
:1010D00047BA40E150E0BC018E010F5F1F4FC801CD
:1010E0000E94B0BAC8010E94FCB884309105B0F0EB
:1010F0001F9224E02F939F938F938EE594E09F930C
:101100008F930E94F5BBF701118210820F900F9010
:101110000F900F900F900F9082E03EC01F930F939F
:101120008FE894E09F938F930E94F5BB66E070E098
:10113000C8010E94D9278C016AED74E080E090E03C
:101140000E9447BAFC0101900020E9F7AF0141502D
:101150005109481B590BBC01C8010E9410296C01A0
:1011600041E050E068E570E0C8010E9410290F904E
:101170000F900F900F90D7FE04C08AEA94E00E946F
:1011800031BCC8010E94492886EB94E00E9431BC22
:10119000F7011182108283E060960FB6F894DEBFEB
:1011A0000FBECDBFDF91CF911F910F91FF90EF90B8
:1011B000DF90CF900895AF92BF92CF92DF92EF92DF
:1011C000FF920F931F93CF93DF9300D000D01F9215
:1011D000CDB7DEB76C018B016DEB74E0CE010196EB
:1011E0007C010E949BBAF601A684B78444E050E0DB
:1011F00062EC74E0C5010E94A2BA892BB1F4F4E05C
:10120000AF0EB11CBF92AF9287EC94E09F938F9387
:101210000E94F5BBF6018685978504960E94B62844
:101220000F900F900F900F9016C044E050E067EDC4
:1012300074E0C5010E94A2BA892B69F48CED94E098
:101240000E9431BCF601668577856C5F7F4F88E12F
:1012500092E00E942E0D20E030E048EE54E06AEE6D
:1012600074E0C8010E94281220E030E046E055E01A
:101270006AE175E0C8010E94281260E070E0C801D0
:101280000E948F1EF70101900020E9F7AF01415045
:1012900051094E195F09B701C8010E94871E0F90BE
:1012A0000F900F900F900F90DF91CF911F910F91A2
:1012B000FF90EF90DF90CF90BF90AF900895CF93C5
:1012C000DF93EC0188819981009721F0803B9105A3
:1012D00061F01BC060E872E08BE19FE00E94DF0ECE
:1012E00080EB90E09983888314C08BE19FE00E949B
:1012F000060F892B71F080911A0F813031F487E34A
:1013000095E00E9431BC0E946B2B1982188283E009
:1013100001C081E0DF91CF9108956F927F928F920B
:101320009F92AF92BF92CF92DF92EF92FF920F9374
:101330001F93CF93DF9300D000D000D0CDB7DEB79E
:101340007C0100E010E033E0632E712C46E0842E37
:10135000912CF70101900020E9F73197EE19FF0970
:101360000E171F07B0F5C80195958795B3010E9428
:10137000ADB36C01009799F40630110584F02E810D
:1013800030E0AD80B12CEC81F0E0C801B4010E94E6
:10139000ADB3CB01A501BF0101970E940980F70100
:1013A000E00FF11F8081898381818A831B8240E164
:1013B00050E060E070E0CE0101960E94C8B7E4E022
:1013C000F0E0EC0FFD1FEC0DFD1D60830E5F1F4F65
:1013D000C0CF2E8130E0ED80F12CEC81F0E0C8012F
:1013E00066E070E00E94ADB3CB01A701BF01019799
:1013F0000E94098026960FB6F894DEBF0FBECDBFBF
:10140000DF91CF911F910F91FF90EF90DF90CF90E0
:10141000BF90AF909F908F907F906F900895BF92F4
:10142000CF92DF92EF92FF920F931F93CF93DF93B0
:10143000CDB7DEB7C156D1090FB6F894DEBF0FBEE7
:10144000CDBF8C01FC0180819181009741F08D37E7
:101450009105A9F0F8011182108283E0BEC082E4F8
:1014600095E00E9431BC60E070E083E29FE00E9462
:10147000DF0E8DE790E0F8019183808306C083E260
:101480009FE00E94060F892B11F481E0A6C0809195
:101490001602909117022091CF2797FD04C030913A
:1014A000CE27321731F12093CE270E944928209170
:1014B000CE27822F992787FD90959F932F9385E5BF
:1014C00095E09F938F93CE0101967C01FF928F93BD
:1014D0000E945EBC61E070E0C7010E94D927909332
:1014E0001702809316020F900F900F900F900F909D
:1014F0000F90809116029091170297FD5BC0B12C5E
:10150000FE0131967F0154E6C52ED12C46E050E015
:10151000B70180911602909117020E94C6281F827F
:10152000C7010E94FCB8843691052CF090931502F7
:101530008093140204C0D0921502C092140240E6B7
:1015400050E0B70180911602909117020E94C628C0
:101550008E0D9F1DFC011082F70101900020E9F71C
:101560003197EE19FF09E036F10550F440E050E004
:1015700060E070E080911602909117020E9463284B
:10158000F70101900020E9F73197EE19FF09E036E5
:10159000F10520F4B394F2E0BF12B8CFC7010E9466
:1015A0008D0941E050E0B701809116029091170239
:1015B0000E94C6286091140270911502882777FD59
:1015C0008095982F0E949FB52FE632E143E05EE3BD
:1015D0000E94ABB60E946CB548CFCF59DF4F0FB613
:1015E000F894DEBF0FBECDBFDF91CF911F910F9159
:1015F000FF90EF90DF90CF90BF9008951F920F92D1
:101600000FB60F9211240BB60F922F933F934F9367
:101610005F936F937F938F939F93AF93BF93EF935A
:10162000FF934D9B04C081E08093482637C0809192
:101630001A0F811106C060E070E080E092E00E9425
:101640002E0D80911A0F8F5F80FF03C080931A0FB9
:1016500025C010921A0F8091CF278F5F982F93701B
:1016600019F08093CF2702C01092CF272091CF2767
:10167000822F992787FD90959F932F9388E595E07A
:101680009F938F930E94F5BB88EE93E09093150291
:10169000809314020F900F900F900F90FF91EF9195
:1016A000BF91AF919F918F917F916F915F914F917A
:1016B0003F912F910F900BBE0F900FBE0F901F9078
:1016C00018950E944C111092CF271092CE27249883
:1016D0002C9AE8E6F0E0808181608083EBE6F0E020
:1016E00080818061808378940895CF93DF93EC01AB
:1016F000549A8BB18F6E8BB988819981892BD9F5DA
:101700001F928AE78F9382E18F931F928EE695E076
:101710009F938F930E94F5BB0E941E800E94F10D43
:101720000E9440100E94B31D0E94F5110E944D1EA0
:101730001F9280E58F938AE795E09F938F930E9495
:10174000F5BB82E292E00E945B1E0E94610B60E0AA
:1017500070E088E592E00E942E0D60E070E08AE083
:1017600092E00E942E0D8DB79EB70A960FB6F894A0
:101770009EBF0FBE8DBF1982188283E0DF91CF918B
:1017800008951F93CF93DF93EC01162FEC81FD8119
:101790003097D1F090932C0F80932B0F82E08887A5
:1017A000CE0106960995992787FD90950297029795
:1017B00010F0133839F4BE01CE01DF91CF911F91A3
:1017C0000C94EE0B81E08887DF91CF911F910895F3
:1017D000FC01208520FD0C94C10B0895CF92DF926F
:1017E000EF92FF920F931F93CF93DF93EC016B0166
:1017F000E0902B0FF0902C0F00912D0F10912E0FD9
:10180000F801EC17FD0739F0309709F44AC0019050
:10181000F081E02DF6CF209709F443C08885882316
:1018200009F118860115110561F0C017D10729F0DB
:10183000AE0167E8C8010E94E80BF8010081118140
:10184000F1CFEC81FD81309769F0CC15DD0551F0C9
:10185000D0932C0FC0932B0F40E050E063E8CE01F3
:1018600006960995E0912D0FF0912E0FCE17DF0708
:1018700069F48881998190932E0F80932D0F0DC06C
:10188000808191818C179D0721F0FC013097C1F771
:1018900004C08881998191838083F0922C0FE0921B
:1018A0002B0FDF91CF911F910F91FF90EF90DF9061
:1018B000CF9008951F93CF93DF931092370FC0916D
:1018C0002D0FD0912E0F11E0209779F08985882374
:1018D00041F01887198640E050E062E8CE010E948E
:1018E000C10B0990D881C02DEFCFDF91CF911F910F
:1018F00008958091DA0F91E0980F9093DA0F089590
:1019000060912B0F70912C0F0C94EE0B8AE8809352
:10191000DA0F1092D80F1092D90F10922E0F10924A
:101920002D0F10922C0F10922B0F08958091370FCE
:1019300081110E945A0C7091D90F772309F451C07C
:10194000E091D80F2E2F30E085E0E89FF0011124C0
:10195000E85CF04F60816093360F41815281509373
:10196000350F4093340F838194819093330F80938C
:10197000320F2F5F3F4F2F7133272093D80F7150B5
:101980007093D90F009731F580912D0F90912E0F04
:101990009093310F8093300F8091300F9091310FE1
:1019A000892BF9F08091370F81110E945A0C4091D8
:1019B000340F5091350F6091360F8091300F909118
:1019C000310F0E94E80BE091300FF091310F8081D0
:1019D0009181DECF613819F421E0FC0120870E945B
:1019E000E80B8091370F2091D90F90E0820F911D65
:1019F00008958091370F2091D90F90E0820F911DAB
:101A000008952091D90F2032B9F0E091D80FE20F5C
:101A1000EF71E0932F0F35E0E39FF0011124E85CB4
:101A2000F04F608352834183948383832F5F20939D
:101A3000D90F80E090E0089581E090E00895CF9381
:101A4000DF93C0912B0FD0912C0F0E94E80BD09305
:101A50002C0FC0932B0FDF91CF910895AB013091E4
:101A60002D0F20912E0FE32FF22FE817F907B1F079
:101A7000309721F00190F081E02DF7CF009771F0C1
:101A8000FC013083218390932E0F80932D0F21E052
:101A900020871782168261E80C941F0D0895009725
:101AA00049F0FC0120852150223020F421E02187DB
:101AB0002093370F089521E030E0FC0180858111EB
:101AC00002C020E030E0C9010895CF93DF93EC011C
:101AD000888199818836910579F08A37910509F4D2
:101AE00053C0892B09F04CC00E94790C8093D427F5
:101AF00010925D1010925C108EED90E10E94840FA8
:101B00008F3F2FEF920719F488E690E036C02091BE
:101B10005C1030915D108D30910579F02F373105D3
:101B20005CF7A9014F5F5F4F50935D1040935C10CD
:101B3000F901E452F04F8083DFCFC9010196909301
:101B40005D1080935C10F901E452F04F10824CED6F
:101B50005FE06091D42780E090E00E94010D40E0BA
:101B600050E065E880912B0F90912C0F0E94010DA1
:101B7000892B09F0BDCF8AE790E09983888307C05D
:101B80001982188283E004C0653809F4B1CF81E07E
:101B9000DF91CF9108958A3009F19091DB0F911177
:101BA0000BC0682F8EED90E10E94650F892B79F4B0
:101BB00081E08093DB0F0BC08D3049F46DE08EED3A
:101BC00090E10E94650F892B11F01092DB0F8AE3E0
:101BD00092E00E944F0D81E090E0089580E090E057
:101BE000089540E86EE570E18EED90E10E945D0F92
:101BF00060E070E08AE392E00C942E0D8091E51095
:101C00009091E610892B29F41092E4101092E310C1
:101C100008950E94B32BE091E510F091E610228127
:101C2000338140815181240F351F281B390B0480DB
:101C3000F581E02D309769F0428153816081718197
:101C4000460F571F481B590B4217530780F79A013D
:101C5000EECF280F391F3093E4102093E31008953E
:101C600084E492E00C944F0DEF92FF920F931F9338
:101C7000CF93DF938C01FC0180819181009799F0D3
:101C80008A359105D9F0F8011182108283E068C08D
:101C9000868197818417950709F049C00480F581F2
:101CA000E02D3097A9F71092E6101092E5108AE522
:101CB00090E0F8019183808381E052C0673891F110
:101CC0006238A9F7C091E510D091E610E12CF12C13
:101CD000209769F3CE010E946836892BF1F0AE019E
:101CE00068E88E819F810E94010D892BA1F41F82DB
:101CF0001E828C819D81E114F10421F0F70195830E
:101D0000848304C09093E6108093E5101D821C82AA
:101D10000E94FE0DD7CF0E94300E7E010C80DD8127
:101D2000C02DD6CFE091E510F091E610BACFF09338
:101D3000E610E093E510A481B581109709F4B7CFC0
:101D400016968D919C9117978417950711F0FD01B8
:101D5000F2CF14968D919C91159795838483EBCF48
:101D6000DF91CF911F910F91FF90EF900895CF9346
:101D7000DF93EC010E94300E8E819F813091E5103F
:101D80002091E610892B59F0E32FF22F309739F08C
:101D9000EC17FD0781F00480F581E02DF7CF8091ED
:101DA0002B0F90912C0F9F838E833C832D83D09398
:101DB000E610C093E510DF91CF910C94FE0DCF9308
:101DC000DF93EC010E944836CE01DF91CF910C9455
:101DD000B70ECF93DF93EC010E945436CE01DF9112
:101DE000CF910C94B70ECF93DF93EC010E945E3637
:101DF000CE01DF91CF910C94B70EFC01208131818F
:101E0000260F371F318320830C94FE0D21E030E034
:101E1000FC0186819781892B11F020E030E0C90117
:101E20000895FC012281338180819181820F931F6B
:101E30000895FC0180819181089581E090E02091D6
:101E4000E5103091E610232B11F480E090E0089526
:101E50008091E5109091E610892B29F08091E31094
:101E60009091E410089580E090E00895CF93DF937F
:101E7000EC01E091E510F091E6108E179F0769F4F0
:101E80008C819D819093E6108093E5100DC0848134
:101E900095818C179D0721F0FC013097C1F706C092
:101EA0008C819D81958384830E94FE0D1D821C82FE
:101EB0001F821E82DF91CF910895FC0171836083A0
:101EC00041504283138214820895FC012381428190
:101ED00050E030E08481D901A81BB109CD018423F1
:101EE00095238417950769F0A081B181A20FB31FD4
:101EF0006C9383818F5F92818923838381E090E05B
:101F0000089580E090E00895FC01748162818381EE
:101F100090E0272F30E0821B930B462F50E0842364
:101F20009523892B59F0A081B181A20FB31F8C9109
:101F300091E0970F9623948390E008958FEF9FEFA1
:101F40000895FC01828190E001960895FC012381AF
:101F500030E08481281B3109828190E08223932321
:101F60000895CF93DF93EC0188819981009739F030
:101F70008436910559F01982188283E01DC00E94B1
:101F8000291C84E690E09983888304C08091D4273B
:101F9000681711F081E010C041155105D9F3FA011D
:101FA00001900020E9F7BF0161507109641B750BB6
:101FB000CA010E943019E5CFDF91CF910895AF9209
:101FC000BF92CF92DF92EF92FF920F931F93CF9326
:101FD000DF93EC015B018A016901009721F4A12CD8
:101FE000B12CC5E0DAE00115110521F4C12CD12C8A
:101FF00005E01AE07E01C7018C1B9D0B8A159B052D
:102000004CF4F70181917F01992787FD90950E94FB
:102010002BBCF1CFE801CE01801B910B8C159D05E7
:102020003CF48991992787FD90950E942BBCF3CFB2
:1020300084EA96E0DF91CF911F910F91FF90EF908E
:10204000DF90CF90BF90AF900C9431BC9F938F9353
:10205000809191291F928F93809190291F928F9345
:1020600086EA96E09F938F930E94F5BB8DB79EB74B
:1020700008960FB6F8949EBF0FBE8DBF08950895C1
:1020800060E070E08EE492E00C942E0DCF93DF932D
:10209000EC0188819981009731F0429779F019829B
:1020A000188283E072C061E070E084EF90E10E94EA
:1020B000DF0E82E190E09983888306C084EF90E18F
:1020C0000E94060F892B11F481E05FC084EF90E13C
:1020D0000E94E90E0E948C80892B59F320E030E0A9
:1020E00044E353E460915126709152268091532627
:1020F000909154260E94ABB62BED3FE049E450E4AA
:102100000E9404B59F938F937F936F9320E030E0FC
:1021100044E353E460914D2670914E2680914F2602
:10212000909150260E94ABB62BED3FE049E450E47D
:102130000E9404B59F938F937F936F9320E030E0CC
:1021400044E353E46091492670914A2680914B26DE
:1021500090914C260E94ABB62BED3FE049E450E451
:102160000E9404B59F938F937F936F9387EC96E0C3
:102170009F938F930E94F5BB8DB79EB70E960FB6B7
:10218000F8949EBF0FBE8DBF94CFDF91CF9108957D
:102190000F931F93CF93DF93EC0188819981009770
:1021A00031F0C69749F11982188283E070C08FEF31
:1021B0008093F3101092F2101092F1101092F01020
:1021C0001092EF1086ED96E00E9431BC60E170E065
:1021D00087EE90E10E94DF0E8091EF109091F01059
:1021E0008034910524F01982188282E050C086E381
:1021F00090E09983888306C087EE90E10E94060FE5
:10220000892B11F481E043C087EE90E10E94E90E32
:102210002091F21030E00091F11010E0E091F31005
:10222000F0E08091EF109091F01060E170E00E947A
:10223000ADB3A801BF010E9409808091EF10909179
:10224000F01001969093F0108093EF108F70992703
:10225000892B11F68091F3108F3F39F41092F21010
:102260001092F3108093F110B7CF8091F1108F3F4F
:1022700039F41092F3101092F1108093F210ACCF59
:102280001092F2101092F1101092F310A5CFDF917E
:10229000CF911F910F910895CF93DF93C0E0D0E0CD
:1022A00020E030E040E050E060E070E0CE010E94CD
:1022B00009802196C031D10599F7DF91CF9108951A
:1022C000AF92BF92CF92DF92EF92FF920F931F9344
:1022D000CF93DF9300D0CDB7DEB78C017A01FC013C
:1022E00080819181892B09F040C05A83498344E061
:1022F00050E069EF76E0C7010E94A2BA892B39F459
:1023000060E070E088E592E00E942E0D2EC0BE01D4
:102310006F5F7F4FC7010E94631C6B017C01BE0190
:102320006F5F7F4F89819A810E94631CB62EBE0128
:102330006F5F7F4F89819A810E94631CA62EBE0128
:102340006F5F7F4F89819A810E94631C262F3327FC
:1023500027FD30954A2D552747FD50956B2D772742
:1023600067FD7095C6010E940980F80111821082F4
:1023700083E00F900F90DF91CF911F910F91FF900D
:10238000EF90DF90CF90BF90AF9008950F931F9381
:10239000CF93DF93EC018A0188819981892BE9F43D
:1023A00045E050E06EE077E0C8010E94A2BA892BB8
:1023B00039F460E070E082E692E00E942E0D0DC0DC
:1023C00044E050E064E277E0C8010E94A2BA892BA1
:1023D00021F482E692E00E94800C1982188283E048
:1023E000DF91CF911F910F91089580E892E00E94B4
:1023F000E41B8CE692E00C94E41BCF93DF93EC019A
:10240000DF93CF931F9286E08F938CE497E09F93A6
:102410008F930E94F5BBCE0106960E94A9200F90D3
:102420000F900F900F900F900F90009751F0FC01BC
:1024300011821082138212829C012A5F3F4F3583E2
:102440002483DF91CF910895FC0171836083089507
:10245000AF92BF92CF92DF92EF92FF920F931F93B2
:10246000CF93DF937C015B016A018901DF924F9377
:10247000BF926F931F932F9386E797E09F938F935D
:102480000E94F5BB8DB79EB708960FB6F8949EBF15
:102490000FBE8DBF0115110541F0F601019000201E
:1024A000E9F7CF018C199D0902C080E090E00E94FD
:1024B000FD11EC010097B1F0AA82BB82012B31F033
:1024C000B6018C819D810E949BBA02C0CC82DD82C4
:1024D000F70184819581D583C483009731F0998376
:1024E000888303C080E090E002C081E090E0DF914B
:1024F000CF911F910F91FF90EF90DF90CF90BF9001
:10250000AF90089590930111809300110895FC01FC
:10251000EE0FFF1FE256FD4F8081918108958439AF
:1025200021E0920709F446C0D8F48A3C9105C9F12C
:1025300040F4883C910591F1893C910509F44FC024
:102540004BC0803321E0920779F1803921E0920776
:1025500071F18C3C910509F03FC08FEA97E0089536
:102560008F3921E0920779F158F4863921E09207FA
:1025700039F118F18E39914079F58FEF97E0089590
:10258000853F21E0920711F1873F21E0920709F191
:10259000843F914009F58BE298E008958BE997E03C
:1025A000089586EA97E008958AEB97E0089587EC0E
:1025B00097E0089583ED97E008958DED97E00895F5
:1025C00080EF97E0089584E198E0089581E498E031
:1025D000089581E598E0089585E698E008958EE9EC
:1025E00097E008954F925F926F927F928F929F92A1
:1025F000AF92BF92CF92DF92EF92FF920F931F9311
:10260000CF93DF93EC016C0122E9C20ED11CD601FD
:102610008C9181111DC3888199818D39B1E09B070F
:1026200009F48AC030F4009799F085399140E1F0BF
:102630000DC3813C21E0920709F4B3C18E3DA1E0B6
:102640009A0709F47DC2863B914009F0FFC290C110
:102650001092FF101092FE108DE698E00E9431BC9F
:1026600085E991E09983888360E2CE010E945E4C07
:1026700082300CF4EDC28E01045D1F4F6091E803BF
:102680007091E90343E050E0C8010E94A2BA892B8F
:1026900019F481E090E029C06091E4037091E503B2
:1026A00044E050E0C8010E94A2BA892B19F482E0EC
:1026B00090E01BC06091E2037091E30343E050E0BF
:1026C000C8010E94A2BA892B19F484E090E00DC0E1
:1026D0006091E0037091E10343E050E0C8010E9483
:1026E000A2BA892B61F488E090E0FE01E956FF4F21
:1026F000918380838DE991E0998388831DC0F601E1
:1027000080811F928F931F930F9389E798E09F9387
:102710008F930E94F5BB87EF91E0FE01ED55FF4FCF
:102720009183808381E0D6018C930F900F900F905E
:102730000F900F900F908AC260E2CE010E945E4C13
:1027400082300CF485C2CE010E94434C8C0F9D1F39
:10275000FC0183A5803231F085E090E09093FF107A
:102760008093FE10CE010E94434C8C0F9D1FDC0114
:102770009B961C928E01045D1F4F1F930F938EE951
:1027800098E09F938F930E94F5BB0F900F900F904E
:102790000F908091FE109091FF10892B09F0CEC010
:1027A0008CA58F32E9F16091EA037091EB0344E06C
:1027B00050E0C8010E94A2BA892B69F01F930F93C1
:1027C0008BEA98E09F938F930E94F5BB0F900F9038
:1027D0000F900F90ADC0A12CB12C30EC832E38E0BF
:1027E000932E6FE270E0C80101960E9487BA8C01B7
:1027F000BF92AF921F938F939F928F920E94F5BBCF
:102800000F900F900F900F900F900F9001151105E2
:1028100039F0BFEFAB1ABB0AE3E0AE16B10409F71B
:102820001F930F9380ED98E09F938F930E94F5BBC9
:102830000F900F900F900F900115110509F478C0BB
:102840000F5F1F4F0115110509F472C0C8010E94E6
:10285000E8205E01F3E9AF0EB11CD5018D939C9386
:10286000F80101900020E9F73197E01BF10B8E0190
:102870000B561F4FD801ED93FC936FE370E00E945D
:1028800087BABE0167567F4F9E0125563F4F00977E
:1028900021F4FB011182108222C0AC014F5F5F4F17
:1028A000DB014D935C93FC011082D5018D919C91CD
:1028B000DC010D900020E9F71197A81BB90BF80176
:1028C000B183A083DB018D919C91DC010D900020F0
:1028D000E9F71197A81BB90BF901B183A083D901BE
:1028E00011968C9111978F938C918F93FB0181811D
:1028F0008F9380818F93D80111968C9111978F932C
:102900008C918F93F50181818F9380818F938FEDCF
:1029100098E09F938F930E94F5BB8DB79EB70A9660
:102920000FB6F8949EBF0FBE8DBF80E090E002C04E
:1029300086E090E09093FF108093FE108091FE104F
:102940009091FF10009781F0FE01ED55FF4F059724
:1029500019F48EE991E002C080E991E091838083CF
:1029600081E0D6018C9372C186EB91E099838883D4
:102970006AE0CE010E945E4C82300CF469C1CE0147
:102980008C969F938F938BE099E09F938F930E94F7
:10299000F5BB0F900F900F900F9081EC91E0998311
:1029A00088836AE0CE010E945E4C82300CF450C1F4
:1029B000CE010E94434C8C0F9D1FFC0113A68CA5D9
:1029C0008D3011F081113FC089E199E00E9431BC46
:1029D000A090D403B090D503FE01E356FF4F0081D1
:1029E00011810115110509F490C0B501D8011296A5
:1029F0008D919C9113970E9492BA892B01F5F80151
:102A0000048115810115110509F47FC0C8010E94D8
:102A1000FCB8FE01E156FF4F808391839F938F9313
:102A20001F930F938EE399E09F938F930E94F5BBC2
:102A30000F900F900F900F900F900F9066C0D801DD
:102A40000D911C91CECF4E01BCE28B0E911C8CE2FD
:102A500099E00E9431BC6AE370E0C4010E9487BA29
:102A60003C01009709F499CF8C010F5F1F4FFC01C7
:102A70001082A090D403B090D503B501C4010E9488
:102A800092BA892B59F0A090D603B090D703B50124
:102A9000C4010E9492BA892B09F07FCFA114B1041E
:102AA00009F47BCF0115110509F477CFD3011196F5
:102AB0008C91803219F483010E5F1F4FF801019051
:102AC0000020E9F7CF010197801B910B0E94FD11B7
:102AD0004C01009761F0DC011396BC92AE92129704
:102AE000B80114968D919C9115970E949BBAFE0196
:102AF000E356FF4F8081918191828082009709F493
:102B00004CCFF4019183808348CFFE01E156FF4F03
:102B100080819181009709F46FC01092FD1010928E
:102B2000FC1001960E94A920FE01EF55FF4F9183F2
:102B30008083892B09F45AC08EED91E099838883B4
:102B400061E070E0CE010E941B4D82300CF480C029
:102B5000CE010E94434C8C0F9D1FDC019C961C9261
:102B6000CE010E94434CA090FC10B090FD108E014D
:102B70000F551F4FF80120813181AC01BE01645D0A
:102B80007F4FC9018A0D9B1D0E9465BACE010E942C
:102B9000434C8A0D9B1D9093FD108093FC10FE0109
:102BA000E156FF4F208131818217930728F2D80127
:102BB000ED91FC9111979C012F5F3F4F3093FD10D9
:102BC0002093FC10E80FF91F108211968C91119739
:102BD0008F938C918F9381E699E09F938F930E94BE
:102BE000F5BB0F900F900F900F9006C081E090E022
:102BF0009093FF108093FE108091FE109091FF1033
:102C0000009771F4E0910011F09101113097D9F023
:102C1000BE016D557F4FCE018D569F4F099513C054
:102C20009F938F9382E799E09F938F930E94F5BBC8
:102C300084EF91E0FE01ED55FF4F918380830F906B
:102C40000F900F900F9081E0F60180831982188217
:102C5000D6018C91813009F017C18AA59BA50097F8
:102C600021F086339240B9F10DC18CE799E00E94C2
:102C700031BC8E010D551F4F4091D8035091D9039F
:102C80006091D0037091D10320E030E0C8010E9430
:102C900028124091DA035091DB036091CE037091CA
:102CA000CF0320E030E0C8010E9428126E01E5EA5F
:102CB000CE0ED11CD6018D919C91892B41F4F80147
:102CC000808191810E948F12D6018D939C9386E31F
:102CD00092E09BA78AA78D899E89009729F08F3162
:102CE000924009F4B9C0C5C08FE899E00E9431BC98
:102CF0006E01E3EACE0ED11CD60114960D911C9103
:102D0000159788EC90E00E94A9207C01009709F4B7
:102D1000ACC08091DD038F938091DC038F93F6012B
:102D200083818F9382818F9381818F9380818F9311
:102D30008091DF038F938091DE038F938DE999E07B
:102D40009F938F93FF92EF920E945EBC5C018DB7C0
:102D50009EB70C960FB6F8949EBF0FBE8DBF98EA33
:102D6000492E99E0592E24EB822E29E0922E37012C
:102D70006A0C7B1C01151105B1F11F930F935F9233
:102D80004F920E94F5BB8091DD038F938091DC030D
:102D90008F93D80115968C9115978F9314968C91DB
:102DA00014978F938091C7038F938091C6038F935D
:102DB00013968C9113978F9312968C918F939F9269
:102DC0008F927F926F920E945EBCA80EB91EF8018E
:102DD000008111818DB79EB740960FB6F8949EBFC3
:102DE0000FBE8DBFC4CF8091DD038F938091DC0334
:102DF0008F9385EA99E09F938F937F926F920E94C1
:102E00005EBCA80EB91ED60118966D917C911997DB
:102E100016964D915C911797C7018A0D9B1D0E94D4
:102E200065BAF601468057804A0C5B1CFF92EF9210
:102E30005F924F928DEB99E09F938F930E94F5BB29
:102E40008FE192E09E8B8D8B8DB79EB70C960FB65F
:102E5000F8949EBF0FBE8DBFA201B701CE0145966B
:102E60000E949C4B82302CF40FC089ED99E00E94A7
:102E700031BC1E8A1D8A80EF99E00E9431BC80E13E
:102E80008093962F1BA61AA6DF91CF911F910F91C9
:102E9000FF90EF90DF90CF90BF90AF909F908F907A
:102EA0007F906F905F904F900895EF92FF920F93F5
:102EB0001F93CF93DF938C01CA01F80120813181E8
:102EC0002115310541F023363240A9F0F801118275
:102ED000108283E08CC00E9402210E94352180E58F
:102EE00090E00E94E9470E94444883E692E0F8019E
:102EF0009183808304C020915731621711F081E0E3
:102F000076C02091962F26FF5CC086E09AE00E9452
:102F100031BC8CEB92E00E949020892B31F38DEA3A
:102F200090E00E94A920EC01009709F442C0BC0186
:102F300080919D2F90919E2F0E946148FE01EE5638
:102F4000FF4F1082FE01ED56FF4F15821482118251
:102F500010821382128217821682118610861386BF
:102F600012861786168615861486FE01ED55FF4FCC
:102F700088EC90E091838083138212821582148200
:102F800011861086178216827E01FCE2EF0EF11C7C
:102F900045E650E0B701CE010E94BE4D45E650E047
:102FA000B701CE0145960E94BE4D1BA61AA6CE01C2
:102FB0001BC084E19AE00E9431BC80E28093962F8E
:102FC00094CF322F307311F427FF0EC0892B09F4F0
:102FD0008CCF0E947B2060E070E080919D2F9091CB
:102FE0009E2F0E94614881CF0E94F2127ECFDF9116
:102FF000CF911F910F91FF90EF900895EF92FF9264
:103000000F931F93FC01CB01DA0166817781611573
:10301000710549F040855185E12CF12C89019D0114
:103020000E948D1F02C080E090E01F910F91FF90E1
:10303000EF900895EF92FF920F931F93FC01CB0145
:10304000DA01668577856115710551F044855585EE
:10305000EE24E394F12C89019D010E948D1F02C092
:1030600080E090E01F910F91FF90EF9008950F93F3
:103070001F93CF93DF93EC01CB018A01BA010E9429
:10308000CE2099878887892B29F01F830E8381E0C2
:1030900090E002C080E090E0DF91CF911F910F910E
:1030A00008950F931F93CF93DF938B01FC01C2858B
:1030B000D385209771F0B8018A819B810E9492BAD2
:1030C000892B19F48C819D8106C00990D881C02D6F
:1030D000F0CF80E090E0DF91CF911F910F910895A4
:1030E000EF92FF920F931F93CF93DF936091D603DC
:1030F0007091D7030E9451187C01009791F00EE95E
:1031000012E0C0E0D0E0C930D10559F0B701F801B4
:10311000819191918F010E9492BA892B29F4219675
:10312000F2CF89E090E001C0CE01DF91CF911F91F5
:103130000F91FF90EF900895FC018081918100979D
:1031400039F08936910549F01182108283E00895A3
:1031500089E690E09183808308C070E08091D52754
:103160009091D6276817790711F081E00895DA0168
:1031700014968D919C91159716962D913C911797C9
:10318000820F931F892B21F71182108282E008950C
:10319000CF93DF93EC0188819981892B11F40E94F0
:1031A0003F101982188283E0DF91CF9108958F92AA
:1031B0009F92AF92BF92CF92DF92EF92FF920F93C6
:1031C0001F93CF93DF93CDB7DEB728970FB6F89450
:1031D000DEBF0FBECDBF7C016B015A014901FC016E
:1031E000808191810E945B0D892B91F0DA82C982E6
:1031F000BE82AD829C828B8218870F83AE014F5FA7
:103200005F4F6091D527F701808191810E941F0D4A
:1032100028960FB6F894DEBF0FBECDBFDF91CF91D9
:103220001F910F91FF90EF90DF90CF90BF90AF90E4
:103230009F908F900895AB01FB0101900020E9F76A
:103240009F0121503109261B370BFC010190002002
:10325000E9F7BF0161507109681B790B0C94DF0F0E
:10326000EF92FF920F931F93CF93DF93CDB7DEB70B
:1032700028970FB6F894DEBF0FBECDBF8C017B013F
:10328000FC01208180911011909111112E3751F481
:1032900021812B3439F4F3E082339F07E1F00E945F
:1032A000800C19C00E945B0D892BA9F01A83098339
:1032B000FE82ED8285E09AE09C838B8318861F82D4
:1032C000AE014F5F5F4F6091D527809110119091B3
:1032D00011110E941F0D28960FB6F894DEBF0FBE85
:1032E000CDBFDF91CF911F910F91FF90EF90089587
:1032F0000F931F93DB019A010097E9F0FC01808591
:1033000091850097C1F0FA0101900020E9F78F0143
:1033100001501109041B150BFB0101900020E9F776
:10332000AF0141505109461B570B06960E94D71812
:103330001F910F910895B901CD011F910F910C9428
:103340001B190F931F93CF93DF938C01FC01808196
:103350009181892BD9F445E05AE062ED7AE084E16D
:1033600093E00E94781982E191E10E949636EC0187
:10337000209761F06C817D8145E05AE084E193E023
:103380000E9478190990D881C02DF2CFF8011182DE
:10339000108283E0DF91CF911F910F910895CF9319
:1033A000DF93EC01009771F04A815B8166EE7AE071
:1033B00086EF92E00E9478198E819F81DF91CF91F4
:1033C0000C94800CDF91CF910895CF93DF9382E12D
:1033D00091E10E949636EC01209789F082E0C63F89
:1033E000D80749F08E819F810E945B0D892B19F0CF
:1033F000CE010E94CF190990D881C02DEDCFDF9169
:10340000CF910895CF93DF93EC0188819981892B27
:1034100011F40E94E5191982188283E0DF91CF919F
:1034200008958F929F92AF92BF92CF92DF92EF92C8
:10343000FF920F931F93CF93DF935B01EC010196F3
:1034400028812032D9F37E018E01FE0120E030E098
:10345000CF0141914423C1F04B3719F42F5F3F4F07
:10346000F7CF4D3719F421503109F2CF4C3781F79E
:103470002115310569F7009739F0FC011192CF0150
:10348000B5010E94111A5C0180E090E030E22881D1
:10349000222379F02B3729F4009709F43883019619
:1034A00006C02D3721F40197009709F4388321963F
:1034B000EECF60E270E0C7010E9487BA6C0100970E
:1034C00019F0FFEFCF1ADF0AF70101900020E9F7AA
:1034D0003197CF01801B910B181619062CF482919D
:1034E000803211F41082F5CFC114D10469F4F701D0
:1034F00001900020E9F78F01015011090E191F09F1
:103500006701C00ED11E05C086010E191F090150AA
:10351000110982E191E10E949636EC01209771F148
:103520008A809B80A801B701C4010E94A2BA892B9E
:1035300021F00990D881C02DF1CFF401E00FF11FE7
:1035400080818111F6CF8E819F810E945B0D892B36
:1035500019F4AC16BD0651F468EF7AE0C7010E9479
:103560001B1919861886C0E0D0E010C0B986A8865D
:10357000B6018E819F810E942E0D08C062E17BE022
:10358000C7010E941B19C5010E94CF19CE01DF910E
:10359000CF911F910F91FF90EF90DF90CF90BF9050
:1035A000AF909F908F9008950F931F93CF93DF93C9
:1035B000E9016115710539F4209711F0198218821B
:1035C00082E090E019C0FB013197E80FF91F2081DC
:1035D000263219F4108201E001C000E010E0BA01C7
:1035E0000E94111A009761F3209751F3FC01268184
:1035F000378139832883C801DF91CF911F910F91C3
:103600000895CF93DF93EC01FA01888199818A3B79
:1036100021E0920709F44EC070F4892BE1F540E0F7
:1036200050E065E880912B0F90912C0F0E94010DC6
:103630008AEB91E02DC08F3B21E0920721F08A3C7C
:10364000914069F128C070E08091D5279091D627EC
:103650006817790769F5648175812AE031E140E0F6
:1036600050E0808191810E94D41A9C0180910A11BE
:1036700090910B11009709F582E393E0909311115B
:103680008093101182E593E00E9426108FEB91E069
:10369000998388830DC01982188283E01FC0673820
:1036A00039F480910A1190910B11E817F90721F371
:1036B00081E014C06538E1F7E5CF232BE9F60E94DD
:1036C0005B0D892BC9F280910A1190910B11909397
:1036D0001111809310118AEC91E0DACFDF91CF9134
:1036E0000895EF92FF920F931F93CF93DF937C0186
:1036F0008A01FC0180819181892BD1F54115510509
:1037000021F0FA018081811108C045E05AE063E3AD
:103710007BE082EE92E00E94781982E191E10E94C2
:103720009636EC012097E9F06A817B81C8010E94FE
:1037300092BA892B91F4F2E0C23EDF0771F08E81DC
:103740009F810E945B0D892B41F0CE010E94CF1911
:10375000F7011182108282E00FC00990D881C02D3C
:10376000E1CFA8016EE57BE082EE92E00E9478193D
:10377000F7011182108283E0DF91CF911F910F91A9
:10378000FF90EF9008950F931F93FB01BA01A901D9
:10379000009779F0DC0118968D919C91199700970C
:1037A00041F0AB01BF0106960E94D7181F910F91FF
:1037B00008959801CF011F910F910C94DF0FBC0168
:1037C00082E191E10C94DB36EF92FF920F931F930D
:1037D000CF93DF938C0182E191E10E949636EC0158
:1037E000E12CF12C209771F0F801628173818A81BC
:1037F0009B810E9492BA97FF1DC07E010990D881DB
:10380000C02DF0CFEF2859F4B80182E191E1DF91AA
:10381000CF911F910F91FF90EF900C940F37B8014B
:1038200082E191E1DF91CF911F910F91FF90EF9095
:103830000C94F636E114F10439F3A801B70182E1E2
:1038400091E1DF91CF911F910F91FF90EF900C9438
:10385000303782E191E10E94923684E193E00E9448
:10386000E41B8AE093E00E94E41B86EF92E00E9452
:10387000E41B82EE92E00E94E41B8EEC92E00E9438
:10388000E41B8AEB92E00E94E41B80EB92E00E9432
:10389000E41B0E94790C90E09093D6278093D52763
:1038A00060E070E082E393E00E942E0D60E070E043
:1038B00088E293E00E942E0D82E393E09093111131
:1038C000809310110895BF92CF92DF92EF92FF92F2
:1038D0000F931F93CF93DF937C01EB01009709F4C3
:1038E0003FC08C010196D8012C912032D1F36801A0
:1038F00020E030E0A901E0E0F0E0D601BD906D01EC
:103900006B2D772767FD7095605371096A307105DB
:10391000C8F4AAE0B0E00E948EB39B01AC01205332
:103920003109410951098B2D992787FD9095A92FC0
:10393000B92F280F391F4A1F5B1F3196EA30F10556
:10394000E1F607C0209789F0309729F4F982E882E0
:103950000CC0209751F0E00FF11FF983E88305C0F8
:1039600060E070E080E090E002C0B901CA01DF9140
:10397000CF911F910F91FF90EF90DF90CF90BF906C
:1039800008950F931F930E94BF2B00910C1110916B
:103990000D1120910E1130910F11600F711F821FB8
:1039A000931F1F910F910895CF92DF92EF92FF9294
:1039B0006B017C010E94BF2BC61AD70AE80AF90ADC
:1039C000C0920C11D0920D11E0920E11F0920F11D5
:1039D000FF90EF90DF90CF900895EF92FF920F93BA
:1039E0001F93CF93DF937C018A01FC018081918139
:1039F000009741F08C3D914091F0F70111821082C7
:103A000083E044C060E075E082E091E10E94DF0E57
:103A10008CED91E0F7019183808381E037C06738B6
:103A200051F582E191E10E949636EC01209781F0F8
:103A30008E819F818017910759F00990D881C02D00
:103A4000F5CF88859985009731F40884D985C02DF4
:103A50002097B9F7DDCFFC0126813781232BA9F30D
:103A600000E010E025E03AE040E050E0B9010696C1
:103A70000E94D718EACF683859F682E091E10E9497
:103A8000E90E0E94C11C0E94D41CC2CFDF91CF91CD
:103A90001F910F91FF90EF90089565E07AE08CE31D
:103AA00093E00E941B1965E07AE082E79BE00E94A8
:103AB0001B1982E593E00C9426100C94E5190E94E2
:103AC000E51982E393E00E94800C88E293E00C9475
:103AD000800CEF92FF920F931F93CF93DF93CDB79C
:103AE000DEB76E970FB6F894DEBF0FBECDBF7C0178
:103AF000FC0180819181892B29F545E05AE06AE635
:103B00007CE08CE593E00E94781900912D0F1091D4
:103B10002E0F01151105B1F0F801628173814EE19C
:103B200050E0CE0101960E94B0BA45E05AE0BE01D5
:103B30006F5F7F4F8CE593E00E947819F801008158
:103B40001181E7CFF7011182108283E06E960FB6E4
:103B5000F894DEBF0FBECDBFDF91CF911F910F91C3
:103B6000FF90EF9008958CE593E00C94E41BAF92E6
:103B7000BF92CF92DF92EF92FF920F931F93CF935A
:103B8000DF938C017B01FC01C080D180A280B380D7
:103B900086E191E10E949636EC01209709F43FC03E
:103BA000C114D104C1F18C819D81FC0101900020E0
:103BB000E9F73197E81BF90BEA15FB0561F5A5015B
:103BC000B6010E94A2BA892B31F5F8018481958152
:103BD0002A813B8182239323892BB9F0E885F985DB
:103BE000309769F4EE81FF81B701C8010995EA8534
:103BF000FB853097E1F0B701C801099518C0B701FE
:103C0000C8010995892B71F712C065E971E0C701F8
:103C10000E9424120CC00990D881C02DBECF64E947
:103C200071E0C7010E94241280E090E002C081E0B0
:103C300090E0DF91CF911F910F91FF90EF90DF9077
:103C4000CF90BF90AF900895CF93DF93EC01888120
:103C50009981009721F083329140A9F016C060E06D
:103C600070E084E992E00E942E0D40E050E065E8AB
:103C700080912B0F90912C0F0E94010D83E291E017
:103C80009983888306C0653821F41982188283E0FD
:103C900001C081E0DF91CF91089586E191E10E941A
:103CA000923687EB9DE10E94821260E070E080E72F
:103CB00093E00C942E0DBC0186E191E10C94F63654
:103CC000CF93DF93EC01BC0184E191E10E94F636D1
:103CD0008A819B81DF91CF910C945B1EFC017587DB
:103CE00064870895FC01848595850895FC0171879A
:103CF00060870895FC0173876287089586E191E1EA
:103D000008950C942412FC018481958108950C94EB
:103D100037180C94FE170C941A180C947018CF9343
:103D2000DF93EC01CB010E9487126091D603709162
:103D3000D70321E030E0AC01CE01DF91CF910C94AC
:103D40002812EF92FF920F931F93CF93DF93CDB77B
:103D5000DEB72A970FB6F894DEBF0FBECDBF7C0149
:103D6000042F10E0A801CE0101960E9465BAE1E09F
:103D7000F0E0EC0FFD1FE00FF11F10826091C8030F
:103D80007091C90321E030E0AE014F5F5F4FC70182
:103D90000E9428122A960FB6F894DEBF0FBECDBF40
:103DA000DF91CF911F910F91FF90EF9008952F9287
:103DB0003F924F925F926F927F928F929F92AF92BB
:103DC000BF92CF92DF92EF92FF920F931F93CF9308
:103DD000DF93CDB7DEB727970FB6F894DEBF0FBEDF
:103DE000CDBF6C017A8369831A0179011C830B832F
:103DF0005F834E8300E010E0412C512C21E0E21A59
:103E0000F10889819A814816590678F0F101E00F8E
:103E1000F11F108281E090E0E981FA814E165F0681
:103E200009F462C080E090E05FC00E151F0570F7D6
:103E3000F601E40DF51D40814532E1F58180912CBC
:103E4000C4014D830E9419BA4D81892BF1F13201D1
:103E500032E0630E711CF601E60DF71DA080B12C57
:103E6000C5010E9419BA4D81892B79F1C4010E94C4
:103E70002CBA4C01C5010E942CBA9C01C401C09708
:103E80008A30910510F4882E03C087E5881A9108BE
:103E9000829480EF8822A901405351094A3051058C
:103EA00010F4205301C02755822AEE81FF818082C1
:103EB00023010EC02B813C81232B39F04B3229F496
:103EC00020E2EE81FF81208303C0EE81FF814083E9
:103ED000FFEF4F1A5F0A0F5F1F4F2E813F812F5F49
:103EE0003F4F3F832E838DCF27960FB6F894DEBFCA
:103EF0000FBECDBFDF91CF911F910F91FF90EF903B
:103F0000DF90CF90BF90AF909F908F907F906F90F9
:103F10005F904F903F902F9008954F925F926F92D5
:103F20007F928F929F92AF92BF92CF92DF92EF9249
:103F3000FF920F931F93CF93DF935C013B016A01C4
:103F4000490128018701F9011082EC010990002044
:103F5000E9F72197C81BD90BC60ED71E7B01F701C5
:103F6000EC0FFD1FEC15FD0568F5E614F70429F0CC
:103F7000D70111978C91863209F580818D33F1F448
:103F8000AE01B701C5010E94A2BA892BB9F42196EE
:103F9000CE0DDF1DA6014C1B5D0B66E270E0CE016D
:103FA0000E944BBA009709F06C01B6016C1B7D0BA7
:103FB0009201A401CE010E94D71E06C0FFEFEF1AA6
:103FC000FF0ACDCF80E090E0DF91CF911F910F915C
:103FD000FF90EF90DF90CF90BF90AF909F908F9029
:103FE0007F906F905F904F900895CF93DF9300D0B4
:103FF00000D0CDB7DEB719821A821B821C822FEF48
:10400000260F243050F4462F50E09E01241B350B20
:10401000BC01C90105960E9465BA69817A818B81CC
:104020009C810F900F900F900F90DF91CF910C9487
:10403000ED47EF92FF920F931F93CF93DF9300D042
:1040400000D0CDB7DEB78C0149835A836B837C8364
:10405000E22E8FEF820F8430A0F4CB01BA010E94D0
:10406000ED4769837A838B839C83F12CBE016E19A3
:104070007F096B5F7F4FA701C8010E9465BAC70126
:1040800002C080E090E00F900F900F900F90DF91B2
:10409000CF911F910F91FF90EF9008954F3F5105E1
:1040A0006105710579F070F04115510521E0620755
:1040B000710550F041155105610521E0720730F09E
:1040C00024E005C021E003C022E001C023E00C94FD
:1040D00019209C0180E090E036952795AC014F5F58
:1040E0005F4F2115310511F0CA01F6CF452B11F4B0
:1040F00080E090E008958091D9279091DA27009789
:1041000071F00E9431891092DA271092D92710920B
:10411000DC271092DB271092D8271092D72708951A
:10412000CF93DF93EC010E947B20CE010E949988FF
:104130009093DA278093D927009721F0D093D8273E
:10414000C093D7271092DC271092DB27DF91CF9105
:1041500008959C01237033272115310519F0049629
:10416000821B930B4091DB275091DC279C01240F8D
:10417000351F8091D7279091D8272817390758F4F1
:104180008091D9279091DA27840F951F3093DC27EF
:104190002093DB27089580E090E00895EF92FF924E
:1041A0000F931F93CF93DF937C018B01CB010E9470
:1041B000A920EC01009721F0A801B7010E9465BA7F
:1041C000CE01DF91CF911F910F91FF90EF90089555
:1041D0000F931F93CF93DF938C01FC01019000207C
:1041E000E9F7CF01801B910B0E94A920EC010097F9
:1041F00019F0B8010E949BBACE01DF91CF911F91B7
:104200000F910895CF93DF93CDB7DEB760970FB6C8
:10421000F894DEBF0FBECDBF8AEA9AEA9A838983FB
:104220001C821B821E821D8218861F821A86198696
:104230001C861B861E861D86188A1F866EE87AE2FB
:10424000CE0101960E94B76621E040E050E0BA013D
:10425000CE0101960E948C6360960FB6F894DEBF83
:104260000FBECDBFDF91CF910895CF93DF93CDB730
:10427000DEB7A0970FB6F894DEBF0FBECDBF8AEAB7
:104280009AEA9A8389831C821B821E821D82188669
:104290001F821A8619861C861B861E861D8680E054
:1042A00091E0988B8F872EEF30E83A8B298B1C8A10
:1042B0001B8A1E8A1D8A188E1F8A22E032E13A8FDD
:1042C000298F24E731E03C8F2B8F9E8F8D8F81E0EB
:1042D00091E098A38F8F20E0AE014F5E5F4F60E8C2
:1042E000CE0101960E943666A0960FB6F894DEBF06
:1042F0000FBECDBFDF91CF9108957F928F929F9295
:10430000AF92BF92CF92DF92EF92FF920F931F93E3
:10431000CF93DF934C01C0E0D0E0712C91E6E92E01
:104320009BE0F92E24E6C22E2BE0D22E36E6A32EF9
:104330003BE0B32EF401EC0FFD1F008110E0102FC5
:1043400000278181080F111D0115110569F477FC03
:104350000DC011E0170D71101FC0BF92AF920E94E7
:1043600007BC0F900F9018C017144CF0CC2349F0E5
:10437000DF92CF920E9407BC0F900F9002C077246B
:104380007A941F930F93FF92EF920E9407BC0F90B5
:104390000F900F900F90172D2296C031D10511F07C
:1043A000712EC8CFDF91CF911F910F91FF90EF90A9
:1043B000DF90CF90BF90AF909F908F907F900895A7
:1043C000E6E4F1E0308120819081808182958695BC
:1043D00086958370307C830F269526952073820FF7
:1043E00092959C70890F0895FF920F931F93CF931E
:1043F000DF93CDB7DEB728970FB6F894DEBF0FBEB8
:10440000CDBF46E069E181E00E945D2D81E00E9420
:10441000CF2D6BEC7DE081E00E94A42D0E94A32BA8
:1044200084B784B784B784B784B7EAE4FAE322E4B4
:1044300032E4318320833A968DB79EB70A97E81706
:10444000F907B8F384EA9CE09F938F9385E79CE09B
:104450009F938F930E9407BC0E94FE380E94860C97
:1044600060E070E084E492E00E942E0D0E94AB3781
:10447000E0910C04F0910D0409950E94E02190E078
:104480000E945B3BCE0101960E9491230F900F90FA
:104490000F900F90882341F085E59CE09F938F93C8
:1044A0000E9407BC0F900F9088E0FE013196AEE8A5
:1044B000BAE201900D928A95E1F7CE0101960E9431
:1044C000C8340E949F238C010E949B23AE014F5F42
:1044D0005F4FB8010E94A2300E940B230E948830D7
:1044E0000E94A3230E94EA3188851F928F938F81B7
:1044F0001F928F938E811F928F938D811F928F9326
:104500008C811F928F938B811F928F938A811F9230
:104510008F9389811F928F9380E39CE09F938F9369
:104520000E9407BC0E94123DE0913804F0913904CA
:104530000995E0912A04F0912B040995E091480433
:10454000F091490409950E94EC31F82E0091440441
:1045500010914504F80109950FB6F894DEBF0FBE1F
:10456000CDBF892B51F0F8010995BC0180E890E09E
:104570000E9499B3162F072F02C010E800E00E9496
:1045800085301F92FF920F931F931F928F938091FC
:1045900037048F93809136048F93809129048F93F1
:1045A000809128048F938EEF9BE09F938F930E94BE
:1045B00007BC60E070E084EB93E00E942E0D88E081
:1045C00094E00E942C3686EF9BE09F938F930E948D
:1045D00007BC0FB6F894DEBF0FBECDBF28960FB64E
:1045E000F894DEBF0FBECDBFDF91CF911F910F9129
:1045F000FF9008957F936F939F938F938BE59BE03C
:104600009F938F930E9407BC0F900F900F900F9075
:104610000F900F9008951F93CF93DF93CDB7DEB720
:10462000A0970FB6F894DEBF0FBECDBF85E090E037
:104630000E9403BD182F282F35EF380F303108F0B6
:10464000982F9095291709F461C080E99CE09F9309
:104650008F930E9407BCE5EDFCE00F900F90DE0108
:10466000119684918D9331968CE0ED3DF807C9F752
:10467000F89448E050E061E270E0CE0101960E94BB
:1046800009BDE7ECFCE0DE01119684918D93319633
:104690008CE0E53DF807C9F74EE050E063E170E0DB
:1046A000CE0101960E9409BDEDEBFCE0DE01119602
:1046B00084918D9331968CE0E73CF807C9F74AE086
:1046C00050E069E070E0CE0101960E9409BD6DECFA
:1046D0007BEA83E090E00E9421BD60E070E081E031
:1046E00090E00E9421BD60E080E090E00E9413BD58
:1046F00060E070E087E090E00E9421BD1AE16AE18D
:1047000075EE85E090E00E9421BD7894812FA096FF
:104710000FB6F894DEBF0FBECDBFDF91CF911F91D2
:104720000895F89448E050E061E270E00E94EBBC2C
:10473000789480E0089583E090E00C9403BD81E0DC
:1047400090E00C9403BD80E090E00C94FBBC9C01D5
:10475000FB01818581FD04C0C9010A96867F089509
:1047600085FF03C0C90101960895FB0186819781E9
:10477000820F931F0895E3E2F1E14FEF5FEF20E036
:1047800030E0DF0114970D90BC91A02DAB2B59F0B8
:10479000A081A11101C0A9012F5F3F4F3A9624309B
:1047A000310579F723C0A9012AE0249FF001259F54
:1047B000F00D1124E55EFE4E938382838FEF9FEF11
:1047C00091838083DB0116968D919C911797958339
:1047D0008483118619968C9183FF02C081E08187C2
:1047E0008FEF9FEF97838683CF0108954F3FBFEFF1
:1047F0005B07D1F680E090E008950F931F93CF936D
:10480000DF938C01EB01AB01662757FD6095762F96
:104810004C5F5F4F6F4F7F4FCA0126E0880F991F93
:104820002A95E1F74AE150E0B8010E94F82CF8011E
:10483000818581FF10C082FD0EC0817261F4DF931B
:10484000CF9380EB9CE09F938F930E94F5BB0F90DA
:104850000F900F900F90DF91CF911F910F910895BE
:10486000CF92DF92EF92FF920F931F93CF93DF933C
:10487000CDB7DEB76A970FB6F894DEBF0FBECDBFD7
:104880006C013DE1E32E31E1F32E00E010E0F70191
:1048900082819381892BF1F060817181CE01019633
:1048A0000E94FD238A8581FF15C082FD13C080739D
:1048B00089F4BE01655F7F4FC6010E9492BA892BC1
:1048C00049F42AE0209FC001219F900D1124855EAC
:1048D0009E4E31C00F5F1F4FFAE0EF0EF11C043007
:1048E0001105A9F600E010E0B801CE0101960E9482
:1048F000FD238A8581FF13C082FD11C0807379F486
:10490000BE01655F7F4FC6010E9492BA892B39F4C0
:10491000BE016F5F7F4FC8010E94BB230CC0BE0168
:104920006F5F7F4FC8010E94A7238C018C339105D4
:10493000DCF280E090E06A960FB6F894DEBF0FBE1E
:10494000CDBFDF91CF911F910F91FF90EF90DF903E
:10495000CF900895CF92DF92EF92FF920F931F9323
:10496000CF93DF93CDB7DEB76A970FB6F894DEBF6B
:104970000FBECDBF6C01E0906B11F0906C110FEF8A
:104980001FEF8CE3E816F1048CF4B701CE01019619
:104990000E94FD238A8581FD26C00F3F8FEF1807F7
:1049A00049F4C7018C0D9D1DCC971CF08FEF9FEF34
:1049B00023C08701BE016F5F7F4FC7010E94A723FD
:1049C0007C01C8018C0D9D1DE816F906D4F22091DA
:1049D0006B1130916C110217130769F490936C11ED
:1049E00080936B1108C0BE016F5F7F4FC7010E94AB
:1049F000A7237C01C4CFC8016A960FB6F894DEBF26
:104A00000FBECDBFDF91CF911F910F91FF90EF901F
:104A1000DF90CF900895CF92DF92EF92FF920F93A5
:104A20001F93CF93DF93CDB7DEB7CA55D1090FB629
:104A3000F894DEBF0FBECDBF7C01BC01CE018F5B01
:104A40009F4F0E94FD2329960EAD1FAD299701505F
:104A50001109A801662757FD6095762F4C5F5F4FBF
:104A60006F4F7F4FC701AA2797FDA095BA2F480F18
:104A7000591F6A1F7B1F6A0156E0CC0CDD1C5A953A
:104A8000E1F7E12CF12C17FD18C040E450E0BE0125
:104A90006F5F7F4FC7018C0D9D1D0E94F82CFE019A
:104AA000EF5BFF4F8FE390E02291222391F00115FD
:104AB000110531F48A31910518F480E090E011C0BD
:104AC000499746E0000F111F4A95E1F7800F911FAB
:104AD00008C0019748F70150110980E4E81AF1086D
:104AE000D2CFC65ADF4F0FB6F894DEBF0FBECDBF90
:104AF000DF91CF911F910F91FF90EF90DF90CF90BA
:104B00000895FC01818581608187AB01662757FD8F
:104B10006095762F4C5F5F4F6F4F7F4FCA0166E005
:104B2000880F991F6A95E1F74AE150E0BF010C94A4
:104B3000F12CCF92DF92EF92FF920F931F93CF93BE
:104B4000DF93CDB7DEB76A970FB6F894DEBF0FBE1E
:104B5000CDBF8C016B017A01BC01CE0101960E9490
:104B6000FD238A8581FD03C08FEF9FEF4FC0982FF3
:104B70009472D1F7CD2869F48A8584608A87B80158
:104B8000CE0101960E94812510926D11EF2871F4DB
:104B90001BC083FFF1CF40E050E060E070E089810E
:104BA0009A810E94992597FFE7CFDECFE7E4F1E1F4
:104BB000DF0112970D90BC91A02D109761F43596EE
:104BC00021E1EF36F207A1F7EDE1F1E1A3E2B1E176
:104BD0008FEF9FEF09C012968D919C9113978017CC
:104BE000910769F71082EBCF2081318120173107BF
:104BF00029F4918380831C92138212823A961A962A
:104C000021E1E534F20781F780E090E06A960FB683
:104C1000F894DEBF0FBECDBFDF91CF911F910F91F2
:104C2000FF90EF90DF90CF9008952F923F924F9298
:104C30005F926F927F928F929F92AF92BF92CF922C
:104C4000DF92EF92FF920F931F93CF93DF93CDB735
:104C5000DEB7A6970FB6F894DEBF0FBECDBF8DA30B
:104C60009EA3562E472E452B59F0852D942D0E943C
:104C7000AA248C018F3F2FEF920709F049C107C08A
:104C80008DA19EA10E943024892B79F377C1809158
:104C90006D11811173C18CEC9CE09F938F9383ED18
:104CA0009CE09F938F930E94F5BB0F900F900F9005
:104CB0000F90612C712C00E010E0CE014B969AA36E
:104CC00089A3DE011196BCA3ABA37AE0872E912CB9
:104CD000E9A1FAA126E011922A95E9F7011511053B
:104CE00031F410921A111092191110921811130127
:104CF0008AE0280E311C80911811C0901911D090B3
:104D00001A11882379F056019AE0C916D104F4F0FB
:104D10009C8E8B8EAAE0CA1AD108D0921A11C0922A
:104D2000191173C07601BAE0CB16D10494F09E8EAF
:104D30008D8EEAE0CE1AD108D0921A11C0921911C4
:104D4000FAE0CF16D1040CF462C05FC0E12CF12C64
:104D500002C0A12CB12CC60CD71CC214D3046CF514
:104D6000B601CE0101960E94FD23109218118A858A
:104D700081FF0DC0982F947251F421E020931811F7
:104D80008F819885C80ED91EA80EB91EE6CF85FF63
:104D900007C08FEFC81AD80A9FEFE91AF90ADDCFCA
:104DA00082FF07C08F819885C80ED91EE80EF91EB4
:104DB000D4CFC1018C199D0902C080E090E065014B
:104DC000CE0CDF1CC80ED91EAAE0CA1AD108D09298
:104DD0001A11C0921911209118111C141D044CF4C1
:104DE000222321F05401AE18BF0803C07401EA1851
:104DF000FB08BC8EAB8EFE8EED8E98A38F8F21119B
:104E000004C0BAE0CB16D10414F0C12CD12C88A177
:104E10008F938F8D8F938E8D8F938D8D8F938C8DA0
:104E20008F938B8D8F931F930F93A1E1BDE0BF9361
:104E3000AF930E94F5BB0FB6F894DEBF0FBECDBF97
:104E40008B8D9C8D181619060CF44EC08D8D9E8D81
:104E5000181619060CF048C080916B1190916C11D6
:104E60006816790624F470926C1160926B111C1410
:104E70001D045CF5ABA1BCA1EAE11D92EA95E9F73E
:104E8000F2E2FA87E12CF12CB1016E0D7F1DCE010B
:104E900001960E9481252FEFE21AF20AEC14FD041C
:104EA00099F7C101B4010E94ADB37F936F93FF9254
:104EB000EF92A3E5BDE0BF93AF930E94F5BB0F90C7
:104EC0000F900F900F900F900F90C8010E94DE6C12
:104ED0001F930F93A4E8BDE0BF93AF930E94F5BB6F
:104EE0000F900F900F900F900F5F1F4F063011051E
:104EF00011F03101EDCE852D942D0E94AA248C0154
:104F00008F3FFFEF9F0721F481E080936D1136C042
:104F1000CE0101967C018AE1D7011D928A95E9F7BD
:104F20008FE0EDA1FEA1DE011B9601900D928A9506
:104F3000E1F75F82488682E08A87B801C7010E9454
:104F400081252EA12F932DA12F931F930F934F9265
:104F50005F928FE99DE09F938F930E94F5BBB7010D
:104F6000C8010E94BB23FC010FB6F894DEBF0FBE40
:104F7000CDBF009719F01182108202C080E090E04E
:104F8000A6960FB6F894DEBF0FBECDBFDF91CF91CE
:104F90001F910F91FF90EF90DF90CF90BF90AF9057
:104FA0009F908F907F906F905F904F903F902F9049
:104FB0000895AF92BF92CF92DF92EF92FF920F933C
:104FC0001F93CF93DF935C016B01E7E4F1E100E015
:104FD00010E08081882359F00F5F1F4F359608300D
:104FE0001105B9F787ED9DE00E9431BC16C085E040
:104FF000809FE001819FD00D1124CD5BDE4E1C828D
:10500000C5010E9430247C019B838A830097B9F4F8
:10501000C60183709927019719F48FEF9FEF2EC077
:1050200041E050E065E070E0C5010E9415269B83D9
:105030008A83009791F3FC01118210820DC0FC015C
:1050400080819181019641F4F701828193810E94D0
:105050000B25F701918380838C818C298C83EA81D5
:10506000FB81C2FE03C08081918102C080E090E09C
:105070009983888380858F5F8087C801DF91CF9176
:105080001F910F91FF90EF90DF90CF90BF90AF9066
:10509000089588309105B0F425E0289FF001299FFC
:1050A000F00D1124E55EFE4E84A5882359F014A668
:1050B000A2A5B3A518968C911897815018968C9339
:1050C00013A612A60895CF93DF939B018830910514
:1050D00008F047C065E0689FF001699FF00D11245A
:1050E000DF01A55EBE4E9C968C918823D1F1ED5BCD
:1050F000FE4E4115510579F04230510529F4A28147
:10510000B3818D919C9105C04130510551F580814D
:105110009181280F391F37FD24C0C281D3818C8132
:105120009D81AA2797FDA095BA2F46E0880F991F69
:10513000AA1FBB1F4A95D1F7A901662757FD6095A5
:10514000762F84179507A607B70758F088819981AD
:105150008217930714F43983288331832083C9018C
:1051600002C08FEF9FEFDF91CF9108950E9430240E
:10517000009749F041E050E061E070E0FC0182817D
:1051800093810C9499258FEF9FEF08950F931F93B0
:10519000CF93DF93EA0188309105D8F525E0289F69
:1051A0008001299F100D1124F801E55EFE4E84A5B3
:1051B000882379F180FF2DC00D5B1E4ED801129619
:1051C000ED91FC9113972D913C9180819181420F3B
:1051D000531F8417950718F4EC01C21BD30B81856C
:1051E00080FD15C08281938156E0880F991F5A95E2
:1051F000E1F7820F931FAE01865E9E4F0E94F82C4E
:10520000F801808191818C0F9D1F91838083CE0155
:1052100002C08FEF9FEFDF91CF911F910F91089503
:105220002F923F924F925F926F927F928F929F92B6
:10523000AF92BF92CF92DF92EF92FF920F931F93A4
:10524000CF93DF93CDB7DEB7EA970FB6F894DEBF02
:105250000FBECDBF7EAB6DAB7A012DB73EB738AF79
:105260002FAB8830910518F08FEF9FEF43C145E0D9
:10527000489F9001499F300D1124F901E55EFE4ED3
:1052800084A5882389F381FFEFCFC9018D5B9E4EF2
:105290006C01DC0112960D911C911397D6018D9132
:1052A0009C919C01265E3F4FF80144815581470146
:1052B000820E931EA12CB12C662757FD6095762F88
:1052C000A6E0440F551F661F771FAA95D1F7481512
:1052D00059056A057B0508F0E7C0F80182809380D4
:1052E000B401CE014B960E94FD2361E070E0CE0137
:1052F00085960E94D9275C0197FDBCC069A17AA15F
:10530000660F771F41E050E0CE0185960E9415267A
:105310008C01009709F488C0612C712C4DB65EB6E3
:105320004F8D58A14115510521F440E450E060E053
:1053300070E02DB73EB7241B350B0FB6F8943EBF77
:105340000FBE2DBF2F5F3F4FB901C50129AF3AAF47
:105350000E94C6281C0129AD3AAD97FF14C040E059
:1053600050E060E070E0D80112968D919C91139707
:105370000E949925C5010E9449280FB6F8945EBE87
:105380000FBE4DBE77C0009791F0F80182819381E6
:10539000B6E0880F991FBA95E1F7860D971DA10118
:1053A000B901865E9E4F0E94F12C620C731C0FB6F1
:1053B000F8945EBE0FBE4DBE232809F0AFCF27E4A0
:1053C00031E1E5E4F1E1D9018C91882399F0808104
:1053D0009181DC0112968D919C9113978815990506
:1053E00049F411830083D80118968C9118978F5F28
:1053F00018968C932B5F3F4F3596B1E1ED36FB0746
:1054000011F740E050E061E070E0C4010E9499258E
:10541000F8012281338197FF0BC040E050E060E04B
:1054200070E0C9010E949925C5010E94492822C047
:10543000B901CE0101960E94FD238F8D98A19E8314
:105440008D838D8D9E8D9C838B83D80112966D915B
:105450007C911397CE0101960E948125F8018185E8
:105460008E7F818771826082C5010E94492880E019
:1054700090E002C08FEF9FEF019609F4F5CED601C0
:1054800012960D911C911397F80183818F9382815D
:105490008F93A9E0BEE0BF93AF930E94F5BB0F903E
:1054A0000F900F900F90FACE40815181841795078D
:1054B0000CF4DACE8281938166E0880F991F6A9599
:1054C000E1F7820F931FA7016DA97EA993950E9412
:1054D000F12CD6018D919C9111978E0D9F1D8D936E
:1054E0009C93F801208131812817390714F49183A6
:1054F0008083C7012FA938AD0FB6F8943EBF0FBE09
:105500002DBFEA960FB6F894DEBF0FBECDBFDF9178
:10551000CF911F910F91FF90EF90DF90CF90BF90B0
:10552000AF909F908F907F906F905F904F903F9043
:105530002F900895FC011182108280E090E0089580
:10554000CF92DF92EF92FF920F931F93CF93DF934F
:10555000CDB7DEB76A970FB6F894DEBF0FBECDBFEA
:105560006C017B01FC01008111810C33110584F574
:10557000B801CE0101960E94FD238A8581FF20C0DB
:1055800082FD1EC08073E1F480E2FE013B96D701EC
:1055900001900D928A95E1F7F701178EC8010E94DC
:1055A0000B25F70191A380A3BE016F5F7F4FC80158
:1055B0000E94A723F6019183808380E090E00AC0D7
:1055C000BE016F5F7F4FC8010E94A7238C01CDCF22
:1055D0008FEF9FEF6A960FB6F894DEBF0FBECDBF78
:1055E000DF91CF911F910F91FF90EF90DF90CF90BF
:1055F000089508950F931F93665E7F4F8B0120E0FF
:1056000030E0015C1F4F2F4F3F4F46E03695279506
:10561000179507954A95D1F740E050E0B8010E94F0
:10562000152621E030E0892B11F020E030E08827BA
:105630009927821B930B1F910F910895CF92DF92B0
:10564000EF92FF920F931F93CF93DF93CDB7DEB707
:105650006A970FB6F894DEBF0FBECDBF6B018A010B
:105660009A01215031092034310518F08FEF9FEF56
:1056700023C064177507D0F30E9430247C01009783
:10568000A9F3FC0162817381CE0101960E94FD2382
:105690008A8583FDEBCFC601B8010E9499B37C8354
:1056A0006B831E830D83F70162817381CE010196A6
:1056B0000E94812580E090E06A960FB6F894DEBFE4
:1056C0000FBECDBFDF91CF911F910F91FF90EF9053
:1056D000DF90CF900895CF93DF931F9286E08F9352
:1056E00087E29EE09F938F930E94F5BB10926C110E
:1056F00010926B110F900F900F900F90C0E0D0E0C0
:10570000CE010E94DE6C8EE290E00E942BBC2196BE
:10571000C630D105A9F783E5EBE1F1E1DF011D9288
:105720008A95E9F785E49EE00E9431BC80E090E034
:10573000DF91CF91089523E530E0FC013183208390
:105740008BE191E10895F8941092B60016BC83EFB6
:1057500087BD82E084BD94E095BD95B395BB8093F1
:105760006E0078940895809170119091711120913C
:1057700070113091711182179307A9F708950F9353
:105780001F936091EB277091EC278091ED2790910A
:10579000EE270091EB271091EC272091ED27309117
:1057A000EE27601771078207930759F71F910F9132
:1057B00008956093EB277093EC278093ED279093E7
:1057C000EE270895CF93DF93EC010E94B32BC80F0F
:1057D000D91F0E94B32B8C1B9D0B97FDFACFDF9135
:1057E000CF9108958430910548F00397880F991F51
:1057F000880F991F969587950197F1F70895CF9394
:10580000DF93EC0184EE93E0209731F00E94F22BBD
:10581000219787EE93E0F8CFDF91CF910895CF9253
:10582000DF92EF92FF920F931F93AFB7F8942091FE
:10583000701130917111280F391F3093711120931D
:10584000701120916F11820F911DB0918F290091DD
:10585000E7271091E8272091E9273091EA27FC01FA
:10586000E038F10568F1E058F1094091EB275091DB
:10587000EC276091ED277091EE274F5F5F4F6F4FE0
:105880007F4F4093EB275093EC276093ED27709365
:10589000EE27BB2329F34091E3275091E427609141
:1058A000E5277091E6274F5F5F4F6F4F7F4F409323
:1058B000E3275093E4276093E5277093E627D0CF42
:1058C000AC01440F452F441F550B519568017901D8
:1058D000C40ED51EE11CF11CC092E727D092E82728
:1058E000E092E927F092EA278F77992780936F114A
:1058F000AFBF1F910F91FF90EF90DF90CF90089571
:105900001F920F920FB60F9211240BB60F922F9386
:105910003F934F935F936F937F938F939F93AF9337
:10592000BF93EF93FF938091701190917111019645
:10593000909371118093701180916F118F5F80939C
:105940006F1187FF15C010926F118091EB27909116
:10595000EC27A091ED27B091EE270196A11DB11D76
:105960008093EB279093EC27A093ED27B093EE273D
:1059700080918F298823E1F080916E118F5F809351
:105980006E1187FF15C010926E118091E3279091E0
:10599000E427A091E527B091E6270196A11DB11D4E
:1059A0008093E3279093E427A093E527B093E6271D
:1059B0000E941D0F892B11F00E94300EFF91EF9174
:1059C000BF91AF919F918F917F916F915F914F9117
:1059D0003F912F910F900BBE0F900FBE0F901F9015
:1059E00018959C01CB01F999FECFB9010C9409BD22
:1059F0009C01CB01F999FECFB9010C94EBBC1F922D
:105A00000F920FB60F9211240BB60F922F933F9364
:105A10004F935F936F937F938F939F93AF93BF93B6
:105A2000EF93FF938091C600E091F127F091F22768
:105A3000309709F00995FF91EF91BF91AF919F9138
:105A40008F917F916F915F914F913F912F910F9027
:105A50000BBE0F900FBE0F901F9018951F920F92C4
:105A60000FB60F9211240BB60F922F933F934F93C3
:105A70005F936F937F938F939F93AF93BF93EF93B6
:105A8000FF938091CE00E091EF27F091F0273097BF
:105A900009F00995FF91EF91BF91AF919F918F917F
:105AA0007F916F915F914F913F912F910F900BBE1E
:105AB0000F900FBE0F901F90189581110EC010927D
:105AC000C5006093C40088E98093C1004093C20080
:105AD0001092F2271092F1270895813069F4109204
