:100000000C941C080C944B080C944B080C944B0853
:100010000C944B080C944B080C944B080C944B0814
:100020000C944B080C946E100C944B080C944B08D9
:100030000C944B080C94DC700C944B080C944B08FB
:100040000C944B080C944B080C944B080C944B08E4
:100050000C94F6360C94DF2E0C944B080C94CC9B2D
:100060000C944B080C945E2F0C944B080C944B088A
:100070000C944B080C944B080C944B080C944B08B4
:100080000C947E6F0C944B080C944B080C944B080A
:100090000C948D2F0C944B080C944B080C943DAB96
:1000A0000C944B080C944B080C944B080C944B0884
:1000B0000C944B080C944B080C944B080C944B0874
:1000C0000C944B080C944B080C944B080C944B0864
:1000D0000C944B080C944B080C944B080C944B0854
:1000E0000C944B080C94AF360C94B9360C94A5368E
:1000F0000C9465360C94EA360C94DB360C94CF36AF
:100100000C94C3360C944B080C944B080C944B087D
:100110000C944B080C944B080C944B080C944B0813
:1001200083AC86AC79AC7DACBDAC8AAC8EAC94AC07
:1001300098AC9CACA2ACA6ACAAACBDACB0ACB4AC18
:10014000B8ACE6470548844873499349B349BB496D
:100150006849036EDB363D9A9999993DABAAAA2A64
:100160003E000000803F084AD73B3BCE016E84BC76
:10017000BFFDC12F3D6C74319ABD56833DDA3D0001
:10018000C77F11BED9E4BB4C3E916BAAAABE00004A
:1001900000803F072C7AA5BA6CC590DA3B9365FCCA
:1001A0008BBC53F810FD3C5692834DBD879D3AB6EB
:1001B0003DCBC9BF5BBE73DA0FC93F6E616E00698C
:1001C0006E660001B202FFFF0190040923A1350110
:1001D0006A02060001600800000000000000000044
:1001E0006004400000000162020000006004004062
:1001F0000000037B034CCD6C03AB033656760068DE
:100200000402CB47A202180400058BC1010C0400B4
:10021000000000037F060CC92C97979703890326DB
:100220004666006C02200002400400000000024408
:10023000040000000002480400000000024C04001A
:1002400000000002500400000000025404000000FE
:100250000002580400000000025C040000000002DC
:10026000BC040000000001EC0400004000037F0615
:100270000CC92C9797970402030D355D0409048778
:100280002D353D00A3010000000001078601FE0797
:100290004105F120283038077E01300746019A07D2
:1002A0004704F1283038076C04F128303802160270
:1002B0000001FB00003E000B0036000100020003BD
:1002C000000000650054FFEF0000FA80000B12826E
:1002D000000100020000000000000000000000001B
:1002E000000000280000FFFF4581FFFFFA720000B8
:1002F0000000000003E80000000100017FFFFFFE96
:100300008001001B00000000000000000000000051
:100310000000003E03304000000002CAE3093E80B6
:10032000000020000000000000004000000060000D
:10033000000041FF000000000B2A000016550000DD
:100340002182FD872650FD800000001F000000056F
:100350008000000000000001000000020000000317
:100360000000400000000000046F00026532000041
:100370005EC040000000000000000000000000001F
:100380000000FB8C6F5DFD5D08D9007C733B006C49
:1003900012CC3200139D3200D0D63200080040004B
:1003A00001F4FFE68079020000000000D0D60000D2
:1003B0002710FB00000040000000000000000000CB
:1003C000000000000001000000000000010001002A
:1003D00000000000FA36FFBC308E0005FBF0FFD9AC
:1003E0005BC8FFD09ABE000010A9FFF41EB200CE79
:1003F000BBF7000000010000000400020002020040
:10040000000CFFC280000001800000CF800040008F
:1004100000000000000100000000000006000000D5
:1004200000140000000000000000000000000000B8
:1004300000000000000000000000000000000000BC
:1004400000000000000000000000000000000000AC
:10045000000000000000033F68B6793528BCC67E66
:10046000D16C80000000400000000000B26A000073
:100470000000000000000000000000003FF000004D
:10048000003000000000000000000000000000003C
:10049000000000000000000000000000000000005C
:1004A00000000000254D002F706D000005AE000C0F
:1004B00002D00000000000650054FFEF00000000C3
:1004C0000000000001000044000000000C000000DB
:1004D0000100000000000065000000540000FFEF74
:1004E000000000000000000000000000000000000C
:1004F00000004000000000000000000000000000BC
:1005000000004000000000000000000000000000AB
:1005100000000000000100000002000000000000D8
:1005200000000000000000000000000000000000CB
:1005300000000000000000000000000000000000BB
:100540000000001B00000000000000000000000090
:10055000000000000000000000000000000000009B
:10056000000000000000000000000000000040004B
:100570000000001B00000000000000000000000060
:10058000000000000000000000000000000000006B
:10059000000000000000000000000000000000005B
:1005A000000000000000000000000000000000004B
:1005B0000000D8DCBAA2F1DEB2B8B4A88191F74A43
:1005C000907F916AF3F9DBA8F9B0BAA080F2CE81EE
:1005D000F3C2F1C1F2C3F3CCA2B280F1C6D880BAA3
:1005E000A7DFDFDFF2A7C3CBC5B6F087A29424480C
:1005F000703C95406834589B78A2F183922D557DCC
:10060000D8B1B4B8A1D09180F270F370F27C80A818
:10061000F101B09887D943D886C988BAA1F20EB83B
:100620009780F1A9DFDFDFAADFDFDFF2AAC5CDC740
:10063000A90CC92C97979797F1A989264666B0B45B
:10064000BA80ACDEF2CAF1B28C02A9B69800890E6B
:10065000161EB8A9B4992C547CB08AA89636567642
:10066000F1B9AFB4B083C0B8A89711B18F98B9AF42
:10067000F0240844106418F1A329557DAF83B59385
:10068000AFF0002850F1A3869F61A6DADEDFD9FA29
:10069000A38696DB31A6D9F8DFBAA68FC2C5C7B24A
:1006A0008CC1B8A2DFDFDFA3DFDFDFD8D8F1B8A8C5
:1006B000B286B4980D355DB8AA98B0872D353DB295
:1006C000B6BAAF8C96198F9FA70E161EB49AB8AA09
:1006D000872C547CB9A3DEDFDFA3B180F2C4CDC97F
:1006E000F1B8A9B499830D355D89B9A32D557DB5B0
:1006F00093A30E161EA92C547CB8B4B0F19783A80E
:100700001184A50998A383F0DA240844106418D84A
:10071000F1A529557DA58595021A2E3A565A4048CD
:10072000F9F3A3D9F8F09883240844106418978249
:10073000A8F111F098A2240844106418DAF3DED866
:1007400083A59401D9A302F1A2C3C5C7D8F18492AD
:10075000A24DDA2AD84869D92AD86855DA32D85051
:1007600071D932D8705DDA3AD85879D93AD87893B5
:10077000A34DDA2AD84869D92AD86855DA32D85030
:1007800071D932D8705DDA3AD85879D93AD878A880
:100790008A9AF02850789EF38818F19F1D98A8D95E
:1007A00008D8C89F129EF315A8DA1210D8F1AFC866
:1007B000978734B5B994A421F3D922D8F22DF3D96F
:1007C0002AD8F235F3D932D881A4606061D961D8D2
:1007D0006C6869D969D8747071D971D8B1A384195A
:1007E0003D5DA3831A3E5E931030811011B8B0AF07
:1007F0008F94F2DA3ED8B49AA88729DAF8D8879A83
:1008000035DAF8D8879A3DDAF8D8B1B9A4988502D4
:100810002E56A581000C14A397B08AF12DD928D8A3
:100820004DD948D86DD968D8B1840DDA0ED8A3292E
:1008300083DA2C0ED8A3844983DA2C4C0ED8B8B0B6
:10084000A88A9AF520AADADFD8A840AAD0DADED89A
:10085000A860AADAD0DFD8F19786A8319B0699075D
:10086000AB9728889BF00C201440B8B0B4A88C9C9F
:10087000F0042851791D301438B282ABD0982C5036
:100880005078789BF11AB0F08A9CA82951798B296D
:1008900051798A2470598B2058718A4469388B3970
:1008A00040688A6448318B304960A58820097158B6
:1008B0004468113964493019F1AC002C547CF08C37
:1008C000A804285078F1889726A85998AC8C02265D
:1008D0004666F0899CA82951792470594469386486
:1008E0004831A98809205970AB11384069A81931DD
:1008F00048608CA83C415C207C00F187981986A850
:100900006E767EA999882D557D9EB9A38A228A6E1E
:100910008A568A5E9FB183062646660E2E4E6E9DCF
:10092000B8AD002C547CF2B18CB499B9A32D557D8F
:100930008191AC38AD3AB58391AC2DD928D84DD939
:1009400048D86DD968D88C9DAE29D904AED851D974
:1009500004AED879D904D881F39DAD008DAE19814C
:10096000ADD901D8F2AEDA26D88E912983A7D9ADB8
:10097000ADADADF32AD8D8F1B0AC89913E5E76F337
:10098000AC2E2EF1B18C5A9CAC2C2828289CAC3073
:1009900018A8988128343C9724A728343C9C24F23A
:1009A000B089AC912C4C6C8A9B2DD9D8D851D9D810
:1009B000D879D9D8D8F19E88A331DAD8D8912DD951
:1009C00028D84DD948D86DD968D8B18393353D80A2
:1009D00025DAD8D88569DAD8D8B49381A328343CED
:1009E000F3AB8BF8A391B609B4D9ABDEFAB0879C10
:1009F000B9A3DDF1A3A3A3A395F1A3A3A39DF1A3A1
:100A0000A3A3A3F2A3B49080F2A3A3A3A3A3A3A33D
:100A1000A3A3A3B2A3A3A3A3A3A3B087B599F1A350
:100A2000A3A398F1A3A3A3A397A3A3A3A3F39BA317
:100A3000A3DCB9A7F1262626D8D8FF0000090A02B0
:100A4000080B0C0D07060304010000000000000065
:100A50000000000000000000000000000000000096
:100A60000000000000000011100F00000000000056
:100A70000000000000000000000000000000000076
:100A800000010210202008081020401020408002A1
:100A900001020108040201010204081020408080C4
:100AA0004020100804020180040201804020100848
:100AB0000402010804020101020408102040800120
:100AC00002040810204080050505050705080808F0
:100AD00008020202020A0A080804040404010101CF
:100AE00001010101010303030303030303040707D7
:100AF000070C0C0C0C0C0C0C0C0202020206060675
:100B000006060606060B0B0B0B0B0B0B0B0000204F
:100B1000002300260029002C002F003200000100D5
:100B20000003010601090100002200250028002B16
:100B3000002E003100340002010000050108010B05
:100B40000100002100240027002A002D003000337E
:100B50000001010000040107010A01257325730A41
:100B6000002578003A003A3A004E657665722D7598
:100B700073656420737461636B203E20256420627A
:100B8000797465730A000A2D2D2D2D2D2D2D2D2DF7
:100B90000A0020203C6E6F6E653E002920256C7592
:100BA000730A002F2575202876696120000A526F8C
:100BB00075746573205B2575206D61785D0A002072
:100BC000203C6E6F6E653E000A000A4E65696768DC
:100BD000626F7273205B2575206D61785D0A000A73
:100BE000000A416464726573736573205B25752028
:100BF0006D61785D0A004F6E6C696E650A00257341
:100C00002025732C206368616E6E656C202575202D
:100C10002C20636865636B207261746520257520E4
:100C2000487A20747820706F7765722025750A00E5
:100C30004555492D3634204D41433A2025782D2500
:100C4000782D25782D25782D25782D25782D25783A
:100C50002D25780A0052616E646F6D204555493626
:100C60003420616464726573732067656E657261B8
:100C70007465640A000A2A2A2A2A2A2A2A426F6FDD
:100C800074696E672025732A2A2A2A2A2A2A0A00CA
:100C9000454550524F4D20697320636F72727570D5
:100CA000742C20726577726974696E672077697435
:100CB000682064656661756C74732E0A006C6F63DE
:100CC000616C686F73740041544D4547413132384F
:100CD0007266613100020000FFFE00000145202520
:100CE000642E256420636C6F636B20256C75206314
:100CF000707520256C75206C706D20256C752069D1
:100D0000727120256C7520676C656420256C7520D8
:100D1000796C656420256C7520726C656420256C87
:100D20007520747820256C75206C697374656E204D
:100D3000256C752073656E736F727320256C75203A
:100D400073657269616C20256C750A0053202564F7
:100D50002E256420636C6F636B20256C752074787E
:100D600020256C7520727820256C7520727478208F
:100D7000256C752072727820256C75207265786DEF
:100D8000697420256C752061636B747820256C75FF
:100D9000206E6F61636B747820256C752061636BC6
:100DA000727820256C752074696D65646F75742088
:100DB000256C752062616461636B727820256C75A7
:100DC00020746F6F6C6F6E6720256C7520746F6F69
:100DD00073686F727420256C752062616473796E1C
:100DE000636820256C752062616463726320256CE2
:100DF0007520636F6E74656E74696F6E64726F7068
:100E000020256C752073656E64696E6764726F70FF
:100E100020256C75206C6C747820256C75206C6CAA
:100E2000727820256C750A004641494C3A2D3437BA
:100E300020746F74616C5F726561643D25640A00A3
:100E40004641494C3A2D343620723D25640A00460D
:100E500041494C3A2D34352C20746F74616C5F72AB
:100E60006561643D256420723D25640A00436F7509
:100E70006E743A25642C20723D25640A004641496F
:100E80004C3A2D343120746F74616C5F726561640B
:100E90003D25640A004641494C3A2D343020723DCC
:100EA00025640A004641494C3A2D33392C20746F91
:100EB00074616C5F726561643D256420723D2564D8
:100EC0000A00436F756E743A25642C20723D2564C8
:100ED0000A004641494C3A2D333520746F74616CD9
:100EE0005F726561643D25640A004641494C3A2DB4
:100EF000333520723D25640A00436F756E743A25C0
:100F0000642C20723D25640A006275665B25645D71
:100F100020213D2025640A0072203D2025640A001E
:100F2000723D25642E206275665B725D3D25640A04
:100F300000723D25640A0000407A10F35A00A07246
:100F40004E18090010A5D4E80000E8764817000004
:100F5000E40B54020000CA9A3B000000E1F50500D2
:100F60000080969800000040420F000000A086011B
:100F7000000000102700000000E8030000000064EB
:100F800000000000000A0000000000010000000056
:100F9000002C76D888DC674F0823DFC1DFAE59E12B
:100FA000B1B796E5E3E453C63AE651997696E8E69A
:100FB000C28426EB898C9B62ED407C6FFCEFBC9C6D
:100FC0009F40F2BAA56FA5F490055A2AF75C936B7F
:100FD0006CF9676DC11BFCE0E40D47FEF520E6B53A
:100FE00000D0ED902E0300943577050080841E0814
:100FF0000000204E0A000000C80C333333330F9832
:101000006E12831141EF8D2114893BE65516CFFEF8
:10101000E6DB18D1844B381BF77C1D901DA4BBE484
:1010200024203284725E228100C9F124ECA1E53DC6
:101030002700C483C89B328411241FBECFEFD1E4A4
:10104000DEBFCDBF1FE0A0E0B2E0E6E5F0E801E0E2
:101050000BBF02C007900D92A235B107D9F71BE371
:10106000A2E5BFE001C01D92A636B107E1F710E18D
:10107000C6E3D0E100E006C022970109FE010BBFE4
:101080000E94E6B6C233D10780E00807A9F70E94A4
:10109000FFB40C9419C00C940000CF93DF93EC01C3
:1010A00088819981892BA9F50E9415110E94420D12
:1010B0000E94910F0E9412200E9454141F928AE7EE
:1010C0008F9382E18F931F9285E694E09F938F9395
:1010D0000E94BDBE0E947D820E94AC201F9280E5CE
:1010E0008F9381E794E09F938F930E94BDBE84E12C
:1010F00092E00E94BA2060E070E08AE492E00E94F0
:101100007F0C8DB79EB70A960FB6F8949EBF0FBEA0
:101110008DBF1982188283E0DF91CF910895CF921D
:10112000DF92EF92FF920F931F93CF93DF93CDB790
:10113000DEB760970FB6F894DEBF0FBECDBF7C015F
:10114000CA01F70120813181232B09F063C068E0D7
:1011500075E00E940FBD40E150E0BC018E010F5FC1
:101160001F4FC8010E9478BDC8010E94C4BB8430D3
:101170009105B0F01F9224E02F939F938F938CE8FA
:1011800094E09F938F930E94BDBEF701118210825D
:101190000F900F900F900F900F900F9082E03EC035
:1011A0001F930F938DEB94E09F938F930E94BDBE8E
:1011B00066E070E0C8010E94382A8C0168E075E0A2
:1011C00080E090E00E940FBDFC0101900020E9F753
:1011D000AF0141505109481B590BBC01C8010E9485
:1011E0006F2B6C0141E050E068E570E0C8010E949F
:1011F0006F2B0F900F900F900F90D7FE04C088EDCB
:1012000094E00E94F9BEC8010E94A82A84EE94E0EE
:101210000E94F9BEF7011182108283E060960FB63A
:10122000F894DEBF0FBECDBFDF91CF911F910F911C
:10123000FF90EF90DF90CF900895AF92BF92CF9242
:10124000DF92EF92FF920F931F93CF93DF9300D023
:1012500000D01F92CDB7DEB76C018B016BEE74E04E
:10126000CE0101967C010E9463BDF601A684B7847D
:1012700044E050E060EF74E0C5010E946ABD892B34
:10128000B1F4F4E0AF0EB11CBF92AF9285EF94E0E1
:101290009F938F930E94BDBEF60186859785049625
:1012A0000E94152B0F900F900F900F9016C044E0E6
:1012B00050E065E075E0C5010E946ABD892B69F4C4
:1012C0008AE095E00E94F9BEF601668577856C5F3D
:1012D0007F4F8AE092E00E947F0C20E030E046E100
:1012E00055E068E175E0C8010E94871420E030E015
:1012F00044E355E068E475E0C8010E94871460E0AB
:1013000070E0C8010E94EE20F70101900020E9F78B
:10131000AF01415051094E195F09B701C8010E9440
:10132000E6200F900F900F900F900F90DF91CF91CC
:101330001F910F91FF90EF90DF90CF90BF90AF90F3
:1013400008956F927F928F929F92AF92BF92CF92A9
:10135000DF92EF92FF920F931F93CF93DF9300D012
:1013600000D000D0CDB7DEB77C0100E010E033E064
:10137000632E712C46E0842E912CF7010190002001
:10138000E9F73197EE19FF090E171F07B0F5C801ED
:1013900095958795B3010E9469B66C01009799F401
:1013A0000630110584F02E8130E0AD80B12CEC8147
:1013B000F0E0C801B4010E9469B6CB01A501BF01EC
:1013C00001970E946882F701E00FF11F80818983F5
:1013D00081818A831B8240E150E060E070E0CE01B1
:1013E00001960E9490BAE4E0F0E0EC0FFD1FEC0DD6
:1013F000FD1D60830E5F1F4FC0CF2E8130E0ED805A
:10140000F12CEC81F0E0C80166E070E00E9469B662
:10141000CB01A701BF0101970E94688226960FB6F3
:10142000F894DEBF0FBECDBFDF91CF911F910F911A
:10143000FF90EF90DF90CF90BF90AF909F908F90F4
:101440007F906F900895BF92CF92DF92EF92FF92BC
:101450000F931F93CF93DF93CDB7DEB7C156D1095A
:101460000FB6F894DEBF0FBECDBF8C01FC018081AA
:101470009181009741F08D379105A9F0F801118213
:10148000108283E0BEC085E695E00E94F9BE60E070
:1014900070E082E59FE00E94300E8DE790E0F80159
:1014A0009183808306C082E59FE00E94570E892BBE
:1014B00011F481E0A6C080916A0290916B022091A4
:1014C000F02897FD04C03091EF28321731F12093B6
:1014D000EF280E94A82A2091EF28822F992787FDC4
:1014E00090959F932F9388E795E09F938F93CE01DC
:1014F00001967C01FF928F930E9426BF61E070E00D
:10150000C7010E94382A90936B0280936A020F9061
:101510000F900F900F900F900F9080916A02909112
:101520006B0297FD5BC0B12CFE0131967F0154E642
:10153000C52ED12C46E050E0B70180916A0290910F
:101540006B020E94252B1F82C7010E94C4BB8436F8
:1015500091052CF0909369028093680204C0D092A8
:101560006902C092680240E650E0B70180916A02C9
:1015700090916B020E94252B8E0D9F1DFC01108205
:10158000F70101900020E9F73197EE19FF09E036E5
:10159000F10550F440E050E060E070E080916A02B4
:1015A00090916B020E94C22AF70101900020E9F796
:1015B0003197EE19FF09E036F10520F4B394F2E01B
:1015C000BF12B8CFC7010E94A10941E050E0B701A6
:1015D00080916A0290916B020E94252B60916802B3
:1015E00070916902882777FD8095982F0E9467B8CF
:1015F0002FE632E143E05EE30E9473B90E9434B803
:1016000048CFCF59DF4F0FB6F894DEBF0FBECDBF26
:10161000DF91CF911F910F91FF90EF90DF90CF90CE
:10162000BF9008951F93CF93DF93EC01162FEC81A9
:10163000FD813097D1F090935B0F80935A0F82E039
:101640008887CE0106960995992787FD9095029780
:10165000029710F0133839F4BE01CE01DF91CF911B
:101660001F910C943F0B81E08887DF91CF911F91F0
:101670000895FC01208520FD0C94120B0895CF9253
:10168000DF92EF92FF920F931F93CF93DF93EC01C2
:101690006B01E0905A0FF0905B0F00915C0F10917E
:1016A0005D0FF801EC17FD0739F0309709F44AC0D7
:1016B0000190F081E02DF6CF209709F443C0888592
:1016C000882309F118860115110561F0C017D107AB
:1016D00029F0AE0167E8C8010E94390BF8010081CA
:1016E0001181F1CFEC81FD81309769F0CC15DD05DA
:1016F00051F0D0935B0FC0935A0F40E050E063E885
:10170000CE0106960995E0915C0FF0915D0FCE1722
:10171000DF0769F48881998190935D0F80935C0F56
:101720000DC0808191818C179D0721F0FC013097BD
:10173000C1F704C08881998191838083F0925B0F07
:10174000E0925A0FDF91CF911F910F91FF90EF9090
:10175000DF90CF9008951F93CF93DF931092660F81
:10176000C0915C0FD0915D0F11E0209779F08985D1
:10177000882341F01887198640E050E062E8CE01E6
:101780000E94120B0990D881C02DEFCFDF91CF912D
:101790001F9108958091091091E0980F909309107E
:1017A000089560915A0F70915B0F0C943F0B8AE87B
:1017B00080930910109207101092081010925D0F7C
:1017C00010925C0F10925B0F10925A0F0895809147
:1017D000660F81110E94AB0B70910810772309F4FA
:1017E00051C0E09107102E2F30E085E0E89FF00116
:1017F0001124E959F04F60816093650F4181528156
:101800005093640F4093630F838194819093620F90
:101810008093610F2F5F3F4F2F7133272093071065
:10182000715070930810009731F580915C0F909182
:101830005D0F9093600F80935F0F80915F0F909189
:10184000600F892BF9F08091660F81110E94AB0B1C
:101850004091630F5091640F6091650F80915F0F0D
:101860009091600F0E94390BE0915F0FF091600F33
:1018700080819181DECF613819F421E0FC0120875D
:101880000E94390B8091660F2091081090E0820F22
:10189000911D08958091660F2091081090E0820FAD
:1018A000911D0895209108102032B9F0E0910710A1
:1018B000E20FEF71E0935E0F35E0E39FF00111243A
:1018C000E959F04F608352834183948383832F5F70
:1018D0002093081080E090E0089581E090E0089562
:1018E000CF93DF93C0915A0FD0915B0F0E94390BB9
:1018F000D0935B0FC0935A0FDF91CF910895AB0146
:1019000030915C0F20915D0FE32FF22FE817F9075C
:10191000B1F0309721F00190F081E02DF7CF0097E2
:1019200071F0FC013083218390935D0F80935C0FF5
:1019300021E020871782168261E80C94700C0895CC
:10194000009749F0FC0120852150223020F421E04D
:1019500021872093660F089521E030E0FC01808507
:10196000811102C020E030E0C9010895CF93DF93D8
:10197000EC01888199818836910579F08A37910543
:1019800009F453C0892B09F04CC00E94CA0B809304
:10199000EE2810928C1010928B108DE091E10E9435
:1019A000D50E8F3F2FEF920719F488E690E036C0EE
:1019B00020918B1030918C108D30910579F02F375C
:1019C00031055CF7A9014F5F5F4F50938C10409336
:1019D0008B10F901E55FFF4E8083DFCFC9010196CF
:1019E00090938C1080938B10F901E55FFF4E10826D
:1019F0004BE050E16091EE2880E090E00E94520CB4
:101A000040E050E065E880915A0F90915B0F0E9492
:101A1000520C892B09F0BDCF8AE790E09983888327
:101A200007C01982188283E004C0653809F4B1CF79
:101A300081E0DF91CF9108958A3009F190910A10E9
:101A400091110BC0682F8DE091E10E94B60E892B99
:101A500079F481E080930A100BC08D3049F46DE079
:101A60008DE091E10E94B60E892B11F010920A10C0
:101A70008CE292E00E94A00C81E090E0089580E06A
:101A800090E0089540E86DE870E18DE091E10E94FA
:101A9000AE0E60E070E08CE292E00C947F0C8091DE
:101AA000141190911511892B29F410921311109291
:101AB000121108950E94122EE0911411F091151147
:101AC0002281338140815181240F351F281B390B1E
:101AD0000480F581E02D309769F042815381608167
:101AE0007181460F571F481B590B4217530780F748
:101AF0009A01EECF280F391F309313112093121142
:101B0000089586E392E00C94A00CEF92FF920F935D
:101B10001F93CF93DF938C01FC018081918100970B
:101B200099F08A359105D9F0F8011182108283E08D
:101B300068C0868197818417950709F049C00480A1
:101B4000F581E02D3097A9F710921511109214111C
:101B50008AE590E0F8019183808381E052C0673884
:101B600091F16238A9F7C0911411D0911511E12CAF
:101B7000F12C209769F3CE010E94C738892BF1F030
:101B8000AE0168E88E819F810E94520C892BA1F4DE
:101B90001F821E828C819D81E114F10421F0F701E6
:101BA0009583848304C090931511809314111D8232
:101BB0001C820E944F0DD7CF0E94810D7E010C80A8
:101BC000DD81C02DD6CFE0911411F0911511BACF5F
:101BD000F0931511E0931411A481B581109709F4C5
:101BE000B7CF16968D919C9117978417950711F092
:101BF000FD01F2CF14968D919C9115979583848366
:101C0000EBCFDF91CF911F910F91FF90EF9008954F
:101C1000CF93DF93EC010E94810D8E819F813091E3
:101C2000141120911511892B59F0E32FF22F3097C1
:101C300039F0EC17FD0781F00480F581E02DF7CF36
:101C400080915A0F90915B0F9F838E833C832D83ED
:101C5000D0931511C0931411DF91CF910C944F0DB7
:101C6000CF93DF93EC010E94A738CE01DF91CF9193
:101C70000C94080ECF93DF93EC010E94B338CE0191
:101C8000DF91CF910C94080ECF93DF93EC010E946B
:101C9000BD38CE01DF91CF910C94080EFC0120815C
:101CA0003181260F371F318320830C944F0D21E0A3
:101CB00030E0FC0186819781892B11F020E030E033
:101CC000C9010895FC012281338180819181820FB5
:101CD000931F0895FC0180819181089581E090E037
:101CE0002091141130911511232B11F480E090E014
:101CF00008958091141190911511892B29F08091EC
:101D0000121190911311089580E090E00895CF93FF
:101D1000DF93EC01E0911411F09115118E179F07DC
:101D200069F48C819D8190931511809314110DC0DD
:101D3000848195818C179D0721F0FC013097C1F7B4
:101D400006C08C819D81958384830E944F0D1D82E6
:101D50001C821F821E82DF91CF910895FC01718346
:101D6000608341504283138214820895FC012381D1
:101D7000428150E030E08481D901A81BB109CD0136
:101D8000842395238417950769F0A081B181A20F60
:101D9000B31F6C9383818F5F92818923838381E05A
:101DA00090E0089580E090E00895FC0174816281E4
:101DB000838190E0272F30E0821B930B462F50E069
:101DC00084239523892B59F0A081B181A20FB31FE1
:101DD0008C9191E0970F9623948390E008958FEF74
:101DE0009FEF0895FC01828190E001960895FC0127
:101DF000238130E08481281B3109828190E0822395
:101E000093230895CF93DF93EC0188819981009704
:101E100039F08436910559F01982188283E01DC08B
:101E20000E94881E84E690E09983888304C0809194
:101E3000EE28681711F081E010C041155105D9F363
:101E4000FA0101900020E9F7BF0161507109641B9C
:101E5000750BCA010E948F1BE5CFDF91CF910895CA
:101E6000AF92BF92CF92DF92EF92FF920F931F93A8
:101E7000CF93DF93EC015B018A016901009721F4A4
:101E8000A12CB12CCDE3DAE00115110521F4C12C10
:101E9000D12C0DE31AE07E01C7018C1B9D0B8A1526
:101EA0009B054CF4F70181917F01992787FD90955F
:101EB0000E94F3BEF1CFE801CE01801B910B8C157F
:101EC0009D053CF48991992787FD90950E94F3BE6A
:101ED000F3CF83E796E0DF91CF911F910F91FF90B1
:101EE000EF90DF90CF90BF90AF900C94F9BE9F938E
:101EF0008F938091AD2A1F928F938091AC2A1F926D
:101F00008F9385E796E09F938F930E94BDBE8DB718
:101F10009EB708960FB6F8949EBF0FBE8DBF08956A
:101F2000089560E070E080E492E00C947F0C0F93E1
:101F30001F93CF93DF938C01FC01808191810097E7
:101F400019F0C89769F03AC060E07AE08FE291E159
:101F50000E94300E88E390E0F8019183808333C0C3
:101F60008FE291E10E94570E892B69F1809119113E
:101F7000813021F586E996E00E94F9BEC0E0D0E00C
:101F800020E030E040E050E06FEF70E0CE010E94D2
:101F900068822196C031D10599F70E94CA2DC0E010
:101FA000D0E020E030E04FEF50E060E070E0CE01A4
:101FB0000E9468822196C031D10599F7F8011182FB
:101FC000108283E001C081E0DF91CF911F910F91DA
:101FD00008950F931F93CF93DF93EC01888199812C
:101FE000009739F08F3E910549F11982188283E0FC
:101FF00070C08FEF8093261110922511109224113A
:10200000109223111092221181EA96E00E94F9BEEB
:1020100060E170E08AE191E10E94300E809122112E
:10202000909123118034910524F01982188282E066
:1020300050C08FEE90E09983888306C08AE191E1D9
:102040000E94570E892B11F481E043C08AE191E18F
:102050000E943A0E2091251130E00091241110E0E9
:10206000E0912611F0E0809122119091231160E11E
:1020700070E00E9469B6A801BF010E946882809149
:102080002211909123110196909323118093221194
:102090008F709927892B11F6809126118F3F39F483
:1020A000109225111092261180932411B7CF8091A0
:1020B00024118F3F39F4109226111092241180932D
:1020C0002511ACCF109225111092241110922611D7
:1020D000A5CFDF91CF911F910F9108951F920F927D
:1020E0000FB60F9211240BB60F922F933F934F937D
:1020F0005F936F937F938F939F93AF93BF93EF9370
:10210000FF9393B180911811892793B1909318117F
:1021100085FF04C081E08093592760C084FF5EC0C2
:1021200080911911811106C060E070E08EE592E0A7
:102130000E947F0C809119118F5F8093191180FD8F
:102140004DC0109219112091F0282F5F822F65E069
:102150000E9447B6992319F02093F02802C01092EC
:10216000F0282091F028822F992787FD90959F9342
:102170002F938BEB96E09F938F930E94BDBE0F90A1
:102180000F900F900F908091F028843089F480E0B8
:1021900092E00E94AC0C892B21F080E092E00E943A
:1021A000D10B60E070E084E592E00E947F0C16C0E5
:1021B00084E592E00E94AC0C892B21F084E592E04A
:1021C0000E94D10B60E070E080E092E00E947F0C02
:1021D00088EE93E09093690280936802FF91EF91FB
:1021E000BF91AF919F918F917F916F915F914F912F
:1021F0003F912F910F900BBE0F900FBE0F901F902D
:102200001895CF93DF93C0E0D0E020E030E040E0CD
:1022100050E060E070E0CE010E9468822196C031FB
:10222000D10599F7DF91CF9108951F93CF93DF9355
:10223000549A8BB110E181278BB962E070E081ED97
:1022400096E00E94382AEC0146E050E06DE074E030
:102250000E946F2BCE010E94A82A8BB181278BB9D7
:102260000E9401118BB181278BB91092F028109236
:10227000EF2824982C9AE8E6F0E080818160808342
:10228000EBE6F0E08081806180837894DF91CF91EC
:102290001F910895CF92DF92EF92FF92CF93DF9339
:1022A000EC01CA01633811F41092161128813981AA
:1022B0002115310539F021383105D1F01982188204
:1022C00083E03CC244E050E067ED76E00E946ABDE6
:1022D000892B19F481E08093161160E070E087E2A9
:1022E00091E10E94300E81E890E09983888306C0D6
:1022F00087E291E10E94570E892B11F481E01EC202
:1023000087E291E10E943A0E0E94F282892B59F3F2
:1023100080911611813009F0CEC020E030E044E316
:1023200053E460916E2770916F2780917027909190
:1023300071270E9473B92BED3FE049E450E40E94FD
:10234000CCB79F938F937F936F9320E030E044E36B
:1023500053E460916A2770916B2780916C2790916C
:102360006D270E9473B92BED3FE049E450E40E94D1
:10237000CCB79F938F937F936F9320E030E044E33B
:1023800053E4609166277091672780916827909148
:1023900069270E9473B92BED3FE049E450E40E94A5
:1023A000CCB79F938F937F936F938CED96E09F9321
:1023B0008F930E94BDBE809165278F938091642783
:1023C0008F93809163278F93809162278F93809161
:1023D00061278F93809160278F9380915F278F93E0
:1023E00080915E278F9380915D278F9380915C27EA
:1023F0008F9380915B278F9380915A278F938BEED9
:1024000096E09F938F930E94BDBE20E030E044E3AE
:1024100053E460917A2770917B2780917C2790917B
:102420007D270E9473B92BED3FE049E450E40E9400
:10243000CCB79F938F937F936F9320E030E044E37A
:1024400053E4609176277091772780917827909157
:1024500079270E9473B92BED3FE049E450E40E94D4
:10246000CCB79F938F937F936F9320E030E044E34A
:1024700053E4609172277091732780917427909133
:1024800075270E9473B92BED3FE049E450E40E94A8
:10249000CCB79F938F937F936F938AEF96E09F9330
:1024A0008F930E94BDBE8DB79EB78A960FB6F894E3
:1024B0009EBF0FBE8DBF20E030E044E353E4609147
:1024C0006A2770916B2780916C2790916D270E94ED
:1024D00073B92BED3FE049E450E40E94CCB76B01A7
:1024E0007C0120E030E046E952EC0E94C8B787FF4B
:1024F0001DC0809117118823B1F00E94011120E0C6
:1025000030E040E050E06FEF70E083E090E00E9448
:10251000688220E030E040E050E06FEF70E084E05F
:1025200090E00E94688210921711DDCE20E030E02A
:1025300044E352ECC701B6010E94C8B787FF1CC034
:10254000809117118130B1F00E94011120E030E03C
:1025500040E050E06FEF70E082E090E00E9468821F
:1025600020E030E040E050E06FEF70E085E090E088
:102570000E94688281E0DFC020E030E048EC51EC4E
:10258000C701B6010E94C8B787FF1CC08091171110
:102590008230B1F00E94011120E030E040E050E0D4
:1025A0006FEF70E081E090E00E94688220E030E010
:1025B00040E050E06FEF70E086E090E00E946882BB
:1025C00082E0B9C020E030E0A901C701B6010E9455
:1025D000C8B787FF1CC0809117118330B1F00E94EB
:1025E000011120E030E040E050E06FEF70E080E06B
:1025F00090E00E94688220E030E040E050E06FEF21
:1026000070E087E090E00E94688283E094C020E060
:1026100030E046E952E4C701B6010E9468B91816D5
:10262000E4F4809117118430B1F00E94011120E090
:1026300030E040E050E06FEF70E08BE090E00E940F
:10264000688220E030E040E050E06FEF70E08CE026
:1026500090E00E94688284E06EC020E030E044E3B5
:1026600052E4C701B6010E9468B91816E4F48091DB
:1026700017118530B1F00E94011120E030E040E0F8
:1026800050E06FEF70E08AE090E00E94688220E006
:1026900030E040E050E06FEF70E08DE090E00E94AD
:1026A000688285E048C020E030E048EC51E4C70192
:1026B000B6010E9468B91816CCF4809117118630C3
:1026C000C9F10E94011120E030E040E050E06FEFDE
:1026D00070E089E090E00E94688220E030E040E015
:1026E00050E06FEF70E08EE090E022C020E030E03C
:1026F000A901C701B6010E9468B918160CF0F3CD04
:10270000809117118630B1F00E94011120E030E075
:1027100040E050E06FEF70E088E090E00E94688257
:1027200020E030E040E050E06FEF70E08FE090E0BC
:102730000E94688286E080931711D5CDDF91CF91FA
:10274000FF90EF90DF90CF900895AF92BF92CF921D
:10275000DF92EF92FF920F931F93CF93DF9300D0FE
:10276000CDB7DEB78C017A01FC0180819181892B84
:1027700009F040C05A83498344E050E06AE177E0C1
:10278000C7010E946ABD892B39F460E070E08AE4D9
:1027900092E00E947F0C2EC0BE016F5F7F4FC70189
:1027A0000E94C21E6B017C01BE016F5F7F4F898159
:1027B0009A810E94C21EB62EBE016F5F7F4F898133
:1027C0009A810E94C21EA62EBE016F5F7F4F898133
:1027D0009A810E94C21E262F332727FD30954A2D4D
:1027E000552747FD50956B2D772767FD7095C601DE
:1027F0000E946882F8011182108283E00F900F908E
:10280000DF91CF911F910F91FF90EF90DF90CF90CC
:10281000BF90AF900895EF92FF920F931F93CF93C5
:10282000DF9300D000D01F92CDB7DEB78C017A01C4
:1028300085E0E7EDF6E0DE01119601900D928A95B4
:10284000E1F7F80180819181892BF1F445E050E0B6
:1028500066E477E0C7010E946ABD892B41F4BE019E
:102860006F5F7F4F84E592E00E947F0C0DC044E0D3
:1028700050E06CE577E0C7010E946ABD892B21F426
:1028800084E592E00E94D10BF8011182108283E06E
:102890000F900F900F900F900F90DF91CF911F919D
:1028A0000F91FF90EF90089580E892E00E94431E00
:1028B0008CE692E00C94431ECF93DF93EC01DF9300
:1028C000CF931F9286E08F9384E897E09F938F9336
:1028D0000E94BDBECE0106960E9408230F900F9065
:1028E0000F900F900F900F90009751F0FC01118204
:1028F0001082138212829C012A5F3F4F358324830A
:10290000DF91CF910895FC01718360830895AF92A8
:10291000BF92CF92DF92EF92FF920F931F93CF93CC
:10292000DF937C015B016A018901DF924F93BF92C3
:102930006F931F932F938EEA97E09F938F930E943C
:10294000BDBE8DB79EB708960FB6F8949EBF0FBE5A
:102950008DBF0115110541F0F60101900020E9F746
:10296000CF018C199D0902C080E090E00E945C14A8
:10297000EC010097B1F0AA82BB82012B31F0B601C5
:102980008C819D810E9463BD02C0CC82DD82F701F3
:1029900084819581D583C483009731F0998388839E
:1029A00003C080E090E002C081E090E0DF91CF9131
:1029B0001F910F91FF90EF90DF90CF90BF90AF905D
:1029C000089590933C1180933B110895FC01EE0F04
:1029D000FF1FE256FD4F808191810895843921E0E7
:1029E000920709F446C0D8F48A3C9105C9F140F435
:1029F000883C910591F1893C910509F44FC04BC089
:102A0000803321E0920779F1803921E0920771F15A
:102A10008C3C910509F03FC087EE97E008958F390F
:102A200021E0920779F158F4863921E0920739F1D3
:102A300018F18E39914079F587E398E00895853F44
:102A400021E0920711F1873F21E0920709F1843FCD
:102A5000914009F583E698E0089583ED97E00895A5
:102A60008EED97E0089582EF97E008958FEF97E05D
:102A700008958BE098E0089585E198E0089588E254
:102A800098E008958CE498E0089589E798E0089527
:102A900089E898E008958DE998E0089586ED97E03B
:102AA00008954F925F926F927F928F929F92AF9212
:102AB000BF92CF92DF92EF92FF920F931F93CF932B
:102AC000DF93EC016C0122E9C20ED11CD6018C917E
:102AD00081111DC3888199818D39B1E09B0709F46B
:102AE0008AC030F4009799F085399140E1F00DC328
:102AF000813C21E0920709F4B3C18E3DA1E09A0721
:102B000009F47DC2863B914009F0FFC290C110924A
:102B10003A111092391185EA98E00E94F9BE85E9D0
:102B200091E09983888360E2CE010E94BD4E82309D
:102B30000CF4EDC28E01045D1F4F6091E8037091AB
:102B4000E90343E050E0C8010E946ABD892B19F4F3
:102B500081E090E029C06091E4037091E50344E0D6
:102B600050E0C8010E946ABD892B19F482E090E010
:102B70001BC06091E2037091E30343E050E0C801A1
:102B80000E946ABD892B19F484E090E00DC0609129
:102B9000E0037091E10343E050E0C8010E946ABD88
:102BA000892B61F488E090E0FE01E956FF4F9183A4
:102BB00080838DE991E0998388831DC0F60180812F
:102BC0001F928F931F930F9381EB98E09F938F93A6
:102BD0000E94BDBE87EF91E0FE01ED55FF4F91834E
:102BE000808381E0D6018C930F900F900F900F900F
:102BF0000F900F908AC260E2CE010E94BD4E8230DB
:102C00000CF485C2CE010E94A24E8C0F9D1FFC01C8
:102C100083A5803231F085E090E090933A11809363
:102C20003911CE010E94A24E8C0F9D1FDC019B9694
:102C30001C928E01045D1F4F1F930F9386ED98E049
:102C40009F938F930E94BDBE0F900F900F900F9097
:102C50008091391190913A11892B09F0CEC08CA541
:102C60008F32E9F16091EA037091EB0344E050E0A8
:102C7000C8010E946ABD892B69F01F930F9383EEF0
:102C800098E09F938F930E94BDBE0F900F900F907E
:102C90000F90ADC0A12CB12C38EF832E38E0932ECD
:102CA0006FE270E0C80101960E944FBD8C01BF9297
:102CB000AF921F938F939F928F920E94BDBE0F90F1
:102CC0000F900F900F900F900F900115110539F094
:102CD000BFEFAB1ABB0AE3E0AE16B10409F71F93CE
:102CE0000F9388E099E09F938F930E94BDBE0F9051
:102CF0000F900F900F900115110509F478C00F5F28
:102D00001F4F0115110509F472C0C8010E94472325
:102D10005E01F3E9AF0EB11CD5018D939C93F801D0
:102D200001900020E9F73197E01BF10B8E010B5663
:102D30001F4FD801ED93FC936FE370E00E944FBDED
:102D4000BE0167567F4F9E0125563F4F009721F4E5
:102D5000FB011182108222C0AC014F5F5F4FDB018B
:102D60004D935C93FC011082D5018D919C91DC0107
:102D70000D900020E9F71197A81BB90BF801B1835A
:102D8000A083DB018D919C91DC010D900020E9F77F
:102D90001197A81BB90BF901B183A083D901119632
:102DA0008C9111978F938C918F93FB0181818F93DD
:102DB00080818F93D80111968C9111978F938C916C
:102DC0008F93F50181818F9380818F9387E199E0C3
:102DD0009F938F930E94BDBE8DB79EB70A960FB684
:102DE000F8949EBF0FBE8DBF80E090E002C086E0E9
:102DF00090E090933A11809339118091391190911C
:102E00003A11009781F0FE01ED55FF4F059719F437
:102E10008EE991E002C080E991E09183808381E0B6
:102E2000D6018C9372C186EB91E0998388836AE026
:102E3000CE010E94BD4E82300CF469C1CE018C9649
:102E40009F938F9383E499E09F938F930E94BDBEDD
:102E50000F900F900F900F9081EC91E099838883F1
:102E60006AE0CE010E94BD4E82300CF450C1CE010A
:102E70000E94A24E8C0F9D1FFC0113A68CA58D30C5
:102E800011F081113FC081E599E00E94F9BEA09048
:102E9000D403B090D503FE01E356FF4F00811181AA
:102EA0000115110509F490C0B501D80112968D9154
:102EB0009C9113970E945ABD892B01F5F80104815A
:102EC00015810115110509F47FC0C8010E94C4BB1A
:102ED000FE01E156FF4F808391839F938F931F9351
:102EE0000F9386E799E09F938F930E94BDBE0F904A
:102EF0000F900F900F900F900F9066C0D8010D911A
:102F00001C91CECF4E01BCE28B0E911C84E699E061
:102F10000E94F9BE6AE370E0C4010E944FBD3C010B
:102F2000009709F499CF8C010F5F1F4FFC011082AD
:102F3000A090D403B090D503B501C4010E945ABD3E
:102F4000892B59F0A090D603B090D703B501C401E6
:102F50000E945ABD892B09F07FCFA114B10409F456
:102F60007BCF0115110509F477CFD30111968C9110
:102F7000803219F483010E5F1F4FF8010190002089
:102F8000E9F7CF010197801B910B0E945C144C0163
:102F9000009761F0DC011396BC92AE921297B801D3
:102FA00014968D919C9115970E9463BDFE01E35686
:102FB000FF4F8081918191828082009709F44CCFEC
:102FC000F4019183808348CFFE01E156FF4F808159
:102FD0009181009709F46FC0109238111092371147
:102FE00001960E940823FE01EF55FF4F91838083D5
:102FF000892B09F45AC08EED91E09983888361E0B2
:1030000070E0CE010E947A4F82300CF480C0CE0175
:103010000E94A24E8C0F9D1FDC019C961C92CE013B
:103020000E94A24EA0903711B09038118E010F551A
:103030001F4FF80120813181AC01BE01645D7F4FDB
:10304000C9018A0D9B1D0E942DBDCE010E94A24E7A
:103050008A0D9B1D9093381180933711FE01E15624
:10306000FF4F208131818217930728F2D801ED911B
:10307000FC9111979C012F5F3F4F309338112093A3
:103080003711E80FF91F108211968C9111978F93C9
:103090008C918F9389E999E09F938F930E94BDBE95
:1030A0000F900F900F900F9006C081E090E09093EA
:1030B0003A11809339118091391190913A1100970A
:1030C00071F4E0913B11F0913C113097D9F0BE01C1
:1030D0006D557F4FCE018D569F4F099513C09F931D
:1030E0008F938AEA99E09F938F930E94BDBE84EFED
:1030F00091E0FE01ED55FF4F918380830F900F907B
:103100000F900F9081E0F601808319821882D6011A
:103110008C91813009F017C18AA59BA5009721F0F9
:1031200086339240B9F10DC184EB99E00E94F9BE5B
:103130008E010D551F4F4091D8035091D9036091D6
:10314000D0037091D10320E030E0C8010E948714C1
:103150004091DA035091DB036091CE037091CF036D
:1031600020E030E0C8010E9487146E01E5EACE0E2F
:10317000D11CD6018D919C91892B41F4F80180815D
:1031800091810E94EE14D6018D939C9386E392E088
:103190009BA78AA78D899E89009729F08F3192403D
:1031A00009F4B9C0C5C087EC99E00E94F9BE6E0170
:1031B000E3EACE0ED11CD60114960D911C91159701
:1031C00088EC90E00E9408237C01009709F4ACC0D1
:1031D0008091DD038F938091DC038F93F6018381CF
:1031E0008F9382818F9381818F9380818F93809140
:1031F000DF038F938091DE038F9385ED99E09F939A
:103200008F93FF92EF920E9426BF5C018DB79EB70D
:103210000C960FB6F8949EBF0FBE8DBF90EE492E50
:1032200099E0592E2CEE822E29E0922E37016A0C5D
:103230007B1C01151105B1F11F930F935F924F9203
:103240000E94BDBE8091DD038F938091DC038F933C
:10325000D80115968C9115978F9314968C9114978D
:103260008F938091C7038F938091C6038F9313969A
:103270008C9113978F9312968C918F939F928F922C
:103280007F926F920E9426BFA80EB91EF80100819E
:1032900011818DB79EB740960FB6F8949EBF0FBEB2
:1032A0008DBFC4CF8091DD038F938091DC038F931A
:1032B0008DED99E09F938F937F926F920E9426BF2E
:1032C000A80EB91ED60118966D917C911997169685
:1032D0004D915C911797C7018A0D9B1D0E942DBDD2
:1032E000F601468057804A0C5B1CFF92EF925F927A
:1032F0004F9285EF99E09F938F930E94BDBE8FE11F
:1033000092E09E8B8D8B8DB79EB70C960FB6F8947E
:103310009EBF0FBE8DBFA201B701CE0145960E9490
:10332000FB4D82302CF40FC081E19AE00E94F9BE7F
:103330001E8A1D8A88E29AE00E94F9BE80E180938D
:10334000B2301BA61AA6DF91CF911F910F91FF906B
:10335000EF90DF90CF90BF90AF909F908F907F9035
:103360006F905F904F900895EF92FF920F931F938D
:10337000CF93DF938C01CA01F8012081318121159F
:10338000310541F023363240A9F0F8011182108254
:1033900083E08CC00E9461230E94942380E590E02A
:1033A0000E94484A0E94A34A83E692E0F801918372
:1033B000808304C020917332621711F081E076C0DF
:1033C0002091B23026FF5CC08EE39AE00E94F9BEE5
:1033D0008CEB92E00E94EF22892B31F38DEA90E092
:1033E0000E940823EC01009709F442C0BC018091BF
:1033F000B9309091BA300E94C04AFE01EE56FF4F9C
:103400001082FE01ED56FF4F158214821182108248
:1034100013821282178216821186108613861286F4
:103420001786168615861486FE01ED55FF4F88EC2B
:1034300090E0918380831382128215821482118618
:103440001086178216827E01FCE2EF0EF11C45E623
:1034500050E0B701CE010E941D5045E650E0B70193
:10346000CE0145960E941D501BA61AA6CE011BC078
:103470008CE49AE00E94F9BE80E28093B23094CF4F
:10348000322F307311F427FF0EC0892B09F48CCF33
:103490000E94DA2260E070E08091B9309091BA30F9
:1034A0000E94C04A81CF0E9451157ECFDF91CF91FB
:1034B0001F910F91FF90EF900895EF92FF920F935D
:1034C0001F93FC01CB01DA016681778161157105DB
:1034D00049F040855185E12CF12C89019D010E9424
:1034E000EC2102C080E090E01F910F91FF90EF90DF
:1034F0000895EF92FF920F931F93FC01CB01DA0125
:10350000668577856115710551F044855585EE24F2
:10351000E394F12C89019D010E94EC2102C080E01E
:1035200090E01F910F91FF90EF9008950F931F93DC
:10353000CF93DF93EC01CB018A01BA010E942D23C6
:1035400099878887892B29F01F830E8381E090E07B
:1035500002C080E090E0DF91CF911F910F9108951C
:103560000F931F93CF93DF938B01FC01C285D3850B
:10357000209771F0B8018A819B810E945ABD892BE6
:1035800019F48C819D8106C00990D881C02DF0CF9F
:1035900080E090E0DF91CF911F910F910895EF921D
:1035A000FF920F931F93CF93DF936091D603709197
:1035B000D7030E94B01A7C01009791F00EE912E047
:1035C000C0E0D0E0C930D10559F0B701F8018191D0
:1035D00091918F010E945ABD892B29F42196F2CF37
:1035E00089E090E001C0CE01DF91CF911F910F9152
:1035F000FF90EF900895FC0180819181009739F050
:103600008936910549F01182108283E0089589E698
:1036100090E09183808308C070E08091F1289091C0
:10362000F2286817790711F081E00895DA011496FD
:103630008D919C91159716962D913C911797820F1D
:10364000931F892B21F71182108282E00895CF9376
:10365000DF93EC0188819981892B11F40E94900FEE
:103660001982188283E0DF91CF9108958F929F9203
:10367000AF92BF92CF92DF92EF92FF920F931F9380
:10368000CF93DF93CDB7DEB728970FB6F894DEBFA0
:103690000FBECDBF7C016B015A014901FC01808145
:1036A00091810E94AC0C892B91F0DA82C982BE8292
:1036B000AD829C828B8218870F83AE014F5F5F4F74
:1036C0006091F128F701808191810E94700C289609
:1036D0000FB6F894DEBF0FBECDBFDF91CF911F9123
:1036E0000F91FF90EF90DF90CF90BF90AF909F90A1
:1036F0008F900895AB01FB0101900020E9F79F0135
:1037000021503109261B370BFC0101900020E9F7FD
:10371000BF0161507109681B790B0C94300FEF9257
:10372000FF920F931F93CF93DF93CDB7DEB7289708
:103730000FB6F894DEBF0FBECDBF8C017B01FC013C
:10374000208180914B1190914C112E3751F42181A1
:103750002B3439F4F3E082339F07E1F00E94D10B60
:1037600019C00E94AC0C892BA9F01A830983FE8230
:10377000ED828DE39AE09C838B8318861F82AE01D5
:103780004F5F5F4F6091F12880914B1190914C11E8
:103790000E94700C28960FB6F894DEBF0FBECDBF06
:1037A000DF91CF911F910F91FF90EF9008950F93AC
:1037B0001F93DB019A010097E9F0FC018085918558
:1037C0000097C1F0FA0101900020E9F78F01015044
:1037D0001109041B150BFB0101900020E9F7AF0153
:1037E00041505109461B570B06960E94361B1F91EC
:1037F0000F910895B901CD011F910F910C947A1B7F
:103800000F931F93CF93DF938C01FC0180819181F3
:10381000892BD9F44DE35AE06AE07BE084E193E040
:103820000E94D71B8DE491E10E94F538EC012097AE
:1038300061F06C817D814DE35AE084E193E00E9468
:10384000D71B0990D881C02DF2CFF80111821082C8
:1038500083E0DF91CF911F910F910895CF93DF9374
:10386000EC01009771F04A815B816EE17BE086EFAD
:1038700092E00E94D71B8E819F81DF91CF910C94A3
:10388000D10BDF91CF910895CF93DF938DE491E138
:103890000E94F538EC01209789F082E0C63FD807F6
:1038A00049F08E819F810E94AC0C892B19F0CE01CA
:1038B0000E942E1C0990D881C02DEDCFDF91CF91B1
:1038C0000895CF93DF93EC0188819981892B11F4BE
:1038D0000E94441C1982188283E0DF91CF910895E1
:1038E0008F929F92AF92BF92CF92DF92EF92FF9210
:1038F0000F931F93CF93DF935B01EC010196288117
:103900002032D9F37E018E01FE0120E030E0CF01AC
:1039100041914423C1F04B3719F42F5F3F4FF7CF4C
:103920004D3719F421503109F2CF4C3781F7211569
:10393000310569F7009739F0FC011192CF01B5010B
:103940000E94701C5C0180E090E030E2288122231C
:1039500079F02B3729F4009709F43883019606C0D3
:103960002D3721F40197009709F438832196EECF83
:1039700060E270E0C7010E944FBD6C01009719F032
:10398000FFEFCF1ADF0AF70101900020E9F7319726
:10399000CF01801B910B181619062CF482918032EE
:1039A00011F41082F5CFC114D10469F4F70101902C
:1039B0000020E9F78F01015011090E191F09670155
:1039C000C00ED11E05C086010E191F090150110934
:1039D0008DE491E10E94F538EC01209771F18A8025
:1039E0009B80A801B701C4010E946ABD892B21F008
:1039F0000990D881C02DF1CFF401E00FF11F808133
:103A00008111F6CF8E819F810E94AC0C892B19F415
:103A1000AC16BD0651F460E37BE0C7010E947A1B3F
:103A200019861886C0E0D0E010C0B986A886B60115
:103A30008E819F810E947F0C08C06AE47BE0C701F1
:103A40000E947A1BC5010E942E1CCE01DF91CF91EE
:103A50001F910F91FF90EF90DF90CF90BF90AF90AC
:103A60009F908F9008950F931F93CF93DF93E90159
:103A70006115710539F4209711F01982188282E0DE
:103A800090E019C0FB013197E80FF91F2081263221
:103A900019F4108201E001C000E010E0BA010E94B8
:103AA000701C009761F3209751F3FC012681378148
:103AB00039832883C801DF91CF911F910F91089519
:103AC000CF93DF93EC01FA01888199818A3B21E051
:103AD000920709F44EC070F4892BE1F540E050E004
:103AE00065E880915A0F90915B0F0E94520C8AEB0F
:103AF00091E02DC08F3B21E0920721F08A3C91405C
:103B000069F128C070E08091F1289091F22868173F
:103B1000790769F56481758125E431E140E050E081
:103B2000808191810E94331D9C018091451190916B
:103B30004611009709F582E393E090934C1180932E
:103B40004B1182E593E00E94770F8FEB91E0998310
:103B500088830DC01982188283E01FC0673839F44A
:103B60008091451190914611E817F90721F381E002
:103B700014C06538E1F7E5CF232BE9F60E94AC0CC1
:103B8000892BC9F2809145119091461190934C1167
:103B900080934B118AEC91E0DACFDF91CF910895B9
:103BA000EF92FF920F931F93CF93DF937C018A01D3
:103BB000FC0180819181892BD1F54115510521F0BE
:103BC000FA018081811108C04DE35AE06BE67BE089
:103BD00082EE92E00E94D71B8DE491E10E94F538BD
:103BE000EC012097E9F06A817B81C8010E945ABDEF
:103BF000892B91F4F2E0C23EDF0771F08E819F8144
:103C00000E94AC0C892B41F0CE010E942E1CF701C2
:103C10001182108282E00FC00990D881C02DE1CFBF
:103C2000A80166E97BE082EE92E00E94D71BF701D3
:103C30001182108283E0DF91CF911F910F91FF904D
:103C4000EF9008950F931F93FB01BA01A90100970C
:103C500079F0DC0118968D919C911997009741F0AD
:103C6000AB01BF0106960E94361B1F910F9108956C
:103C70009801CF011F910F910C94300FBC018DE47E
:103C800091E10C943A39EF92FF920F931F93CF93E7
:103C9000DF938C018DE491E10E94F538EC01E12C79
:103CA000F12C209771F0F801628173818A819B81E8
:103CB0000E945ABD97FF1DC07E010990D881C02D7A
:103CC000F0CFEF2859F4B8018DE491E1DF91CF9165
:103CD0001F910F91FF90EF900C946E39B8018DE415
:103CE00091E1DF91CF911F910F91FF90EF900C9494
:103CF0005539E114F10439F3A801B7018DE491E1DC
:103D0000DF91CF911F910F91FF90EF900C948F391D
:103D10008DE491E10E94F13884E193E00E94431E1A
:103D20008AE093E00E94431E86EF92E00E94431EC9
:103D300082EE92E00E94431E8EEC92E00E94431EAF
:103D40008AEB92E00E94431E80EB92E00E94431EA9
:103D50000E94CA0B90E09093F2288093F12860E0D3
:103D600070E082E393E00E947F0C60E070E088E204
:103D700093E00E947F0C82E393E090934C11809338
:103D80004B110895BF92CF92DF92EF92FF920F9363
:103D90001F93CF93DF937C01EB01009709F43FC0A1
:103DA0008C010196D8012C912032D1F3680120E0DA
:103DB00030E0A901E0E0F0E0D601BD906D016B2D8F
:103DC000772767FD7095605371096A307105C8F4F3
:103DD000AAE0B0E00E943CB69B01AC01205331093F
:103DE000410951098B2D992787FD9095A92FB92F4E
:103DF000280F391F4A1F5B1F3196EA30F105E1F6A3
:103E000007C0209789F0309729F4F982E8820CC026
:103E1000209751F0E00FF11FF983E88305C060E0BF
:103E200070E080E090E002C0B901CA01DF91CF915B
:103E30001F910F91FF90EF90DF90CF90BF9008956A
:103E40000F931F930E941E2E00914711109148114D
:103E50002091491130914A11600F711F821F931FE9
:103E60001F910F910895CF92DF92EF92FF926B0115
:103E70007C010E941E2EC61AD70AE80AF90AC092CF
:103E80004711D0924811E0924911F0924A11FF90E7
:103E9000EF90DF90CF900895EF92FF920F931F93D2
:103EA000CF93DF937C018A01FC018081918100978F
:103EB00041F08C3D914091F0F7011182108283E036
:103EC00044C060E075E08DE391E10E94300E8CED1E
:103ED00091E0F7019183808381E037C0673851F525
:103EE0008DE491E10E94F538EC01209781F08E81FC
:103EF0009F818017910759F00990D881C02DF5CF87
:103F000088859985009731F40884D985C02D20973C
:103F1000B9F7DDCFFC0126813781232BA9F300E01F
:103F200010E02DE33AE040E050E0B90106960E942F
:103F3000361BEACF683859F68DE391E10E943A0EBC
:103F40000E94201F0E94331FC2CFDF91CF911F918B
:103F50000F91FF90EF9008956DE37AE08CE393E08A
:103F60000E947A1B6DE37AE08AEA9BE00E947A1B4A
:103F700082E593E00C94770F0C94441C0E94441C3F
:103F800082E393E00E94D10B88E293E00C94D10B82
:103F9000EF92FF920F931F93CF93DF93CDB7DEB7CE
:103FA0006E970FB6F894DEBF0FBECDBF7C01FC014B
:103FB00080819181892B29F54DE35AE062EA7CE00A
:103FC0008CE593E00E94D71B00915C0F10915D0F70
:103FD00001151105B1F0F801628173814EE150E0E5
:103FE000CE0101960E9478BD4DE35AE0BE016F5F9D
:103FF0007F4F8CE593E00E94D71BF801008111816F
:10400000E7CFF7011182108283E06E960FB6F89425
:10401000DEBF0FBECDBFDF91CF911F910F91FF90FB
:10402000EF9008958CE593E00C94431EAF92BF92FD
:10403000CF92DF92EF92FF920F931F93CF93DF9374
:104040008C017B01FC01C080D180A280B38081E51E
:1040500091E10E94F538EC01209709F43FC0C114AA
:10406000D104C1F18C819D81FC0101900020E9F710
:104070003197E81BF90BEA15FB0561F5A501B601BF
:104080000E946ABD892B31F5F801848195812A81CE
:104090003B8182239323892BB9F0E885F9853097FA
:1040A00069F4EE81FF81B701C8010995EA85FB85B6
:1040B0003097E1F0B701C801099518C0B701C801F0
:1040C0000995892B71F712C065E971E0C7010E945B
:1040D00083140CC00990D881C02DBECF64E971E073
:1040E000C7010E94831480E090E002C081E090E06C
:1040F000DF91CF911F910F91FF90EF90DF90CF90C4
:10410000BF90AF900895CF93DF93EC0188819981A0
:10411000009721F083329140A9F016C060E070E072
:1041200084E992E00E947F0C40E050E065E88091D5
:104130005A0F90915B0F0E94520C83E291E0998399
:10414000888306C0653821F41982188283E001C093
:1041500081E0DF91CF91089581E591E10E94F138EE
:1041600086E190E20E94E11460E070E080E793E075
:104170000C947F0CBC0181E591E10C945539CF93EF
:10418000DF93EC01BC018FE491E10E9455398A81F3
:104190009B81DF91CF910C94BA20FC0175876487D5
:1041A0000895FC01848595850895FC0171876087D9
:1041B0000895FC0173876287089581E591E1089570
:1041C0000C948314FC018481958108950C94961AB3
:1041D0000C945D1A0C94791A0C94CF1ACF93DF9338
:1041E000EC01CB010E94E6146091D6037091D703D5
:1041F00021E030E0AC01CE01DF91CF910C94871427
:10420000EF92FF920F931F93CF93DF93CDB7DEB75B
:104210002A970FB6F894DEBF0FBECDBF7C01042FE6
:1042200010E0A801CE0101960E942DBDE1E0F0E072
:10423000EC0FFD1FE00FF11F10826091C803709119
:10424000C90321E030E0AE014F5F5F4FC7010E941C
:1042500087142A960FB6F894DEBF0FBECDBFDF914C
:10426000CF911F910F91FF90EF9008952F923F9261
:104270004F925F926F927F928F929F92AF92BF9276
:10428000CF92DF92EF92FF920F931F93CF93DF9322
:10429000CDB7DEB727970FB6F894DEBF0FBECDBF00
:1042A0006C017A8369831A0179011C830B835F8314
:1042B0004E8300E010E0412C512C21E0E21AF1087D
:1042C00089819A814816590678F0F101E00FF11FB3
:1042D000108281E090E0E981FA814E165F0609F4D0
:1042E00062C080E090E05FC00E151F0570F7F60118
:1042F000E40DF51D40814532E1F58180912CC4012A
:104300004D830E94E1BC4D81892BF1F1320132E0F5
:10431000630E711CF601E60DF71DA080B12CC501DE
:104320000E94E1BC4D81892B79F1C4010E94F4BC4B
:104330004C01C5010E94F4BC9C01C401C0978A30A5
:10434000910510F4882E03C087E5881A910882949D
:1043500080EF8822A901405351094A30510510F4D9
:10436000205301C02755822AEE81FF8180822301DC
:104370000EC02B813C81232B39F04B3229F420E2F3
:10438000EE81FF81208303C0EE81FF814083FFEF38
:104390004F1A5F0A0F5F1F4F2E813F812F5F3F4FE4
:1043A0003F832E838DCF27960FB6F894DEBF0FBEC6
:1043B000CDBFDF91CF911F910F91FF90EF90DF90D4
:1043C000CF90BF90AF909F908F907F906F905F90B5
:1043D0004F903F902F9008954F925F926F927F92EF
:1043E0008F929F92AF92BF92CF92DF92EF92FF9205
:1043F0000F931F93CF93DF935C013B016A01490147
:1044000028018701F9011082EC0109900020E9F7E9
:104410002197C81BD90BC60ED71E7B01F701EC0FE5
:10442000FD1FEC15FD0568F5E614F70429F0D7012A
:1044300011978C91863209F580818D33F1F4AE01AC
:10444000B701C5010E946ABD892BB9F42196CE0D32
:10445000DF1DA6014C1B5D0B66E270E0CE010E94E1
:1044600013BD009709F06C01B6016C1B7D0B920126
:10447000A401CE010E94362106C0FFEFEF1AFF0A09
:10448000CDCF80E090E0DF91CF911F910F91FF9011
:10449000EF90DF90CF90BF90AF909F908F907F90E4
:1044A0006F905F904F900895CF93DF9300D000D02E
:1044B000CDB7DEB719821A821B821C822FEF260F1E
:1044C000243050F4462F50E09E01241B350BBC01D4
:1044D000C90105960E942DBD69817A818B819C81DD
:1044E0000F900F900F900F90DF91CF910C944C4A4A
:1044F000EF92FF920F931F93CF93DF9300D000D0E2
:10450000CDB7DEB78C0149835A836B837C83E22E5F
:104510008FEF820F8430A0F4CB01BA010E944C4A85
:1045200069837A838B839C83F12CBE016E197F098A
:104530006B5F7F4FA701C8010E942DBDC70102C05C
:1045400080E090E00F900F900F900F90DF91CF914F
:104550001F910F91FF90EF9008954F3F5105610516
:10456000710579F070F04115510521E06207710580
:1045700050F041155105610521E0720730F024E04B
:1045800005C021E003C022E001C023E00C947822A2
:104590009C0180E090E036952795AC014F5F5F4F1E
:1045A0002115310511F0CA01F6CF452B11F480E039
:1045B00090E008958091F5289091F628009771F089
:1045C0000E945DA61092F6281092F5281092F82805
:1045D0001092F7281092F4281092F3280895CF93A0
:1045E000DF93EC010E94DA22CE010E94C5A59093D0
:1045F000F6288093F528009721F0D093F428C093F3
:10460000F3281092F8281092F728DF91CF9108959F
:104610009C01237033272115310519F00496821B64
:10462000930B4091F7285091F8289C01240F351FD7
:104630008091F3289091F4282817390758F4809135
:10464000F5289091F628840F951F3093F828209331
:10465000F728089580E090E00895EF92FF920F937D
:104660001F93CF93DF937C018B01CB010E94082322
:10467000EC01009721F0A801B7010E942DBDCE01E9
:10468000DF91CF911F910F91FF90EF9008950F93BD
:104690001F93CF93DF938C01FC0101900020E9F779
:1046A000CF01801B910B0E940823EC01009719F0A9
:1046B000B8010E9463BDCE01DF91CF911F910F9190
:1046C0000895CF93DF93CDB7DEB760970FB6F89418
:1046D000DEBF0FBECDBF8AEA9AEA9A8389831C8225
:1046E0001B821E821D8218861F821A8619861C86CE
:1046F0001B861E861D86188A1F866AEA7BE2CE010B
:1047000001960E94166921E040E050E0BA01CE0116
:1047100001960E94EB6560960FB6F894DEBF0FBE5F
:10472000CDBFDF91CF910895CF93DF93CDB7DEB7A3
:10473000A0970FB6F894DEBF0FBECDBF8AEA9AEA03
:104740009A8389831C821B821E821D8218861F8287
:104750001A8619861C861B861E861D8680E091E0BF
:10476000988B8F872EEF30E83A8B298B1C8A1B8A17
:104770001E8A1D8A188E1F8A22E032E13A8F298F05
:1047800024E731E03C8F2B8F9E8F8D8F81E091E06D
:1047900098A38F8F20E0AE014F5E5F4F60E8CE019F
:1047A00001960E949568A0960FB6F894DEBF0FBEE2
:1047B000CDBFDF91CF9108957F928F929F92AF925C
:1047C000BF92CF92DF92EF92FF920F931F93CF93FE
:1047D000DF934C01C0E0D0E0712C91E6E92E9BE024
:1047E000F92E24E6C22E2BE0D22E36E6A32E3BE095
:1047F000B32EF401EC0FFD1F008110E0102F0027F5
:104800008181080F111D0115110569F477FC0DC098
:1048100011E0170D71101FC0BF92AF920E94CFBE62
:104820000F900F9018C017144CF0CC2349F0DF9272
:10483000CF920E94CFBE0F900F9002C077247A943F
:104840001F930F93FF92EF920E94CFBE0F900F9095
:104850000F900F90172D2296C031D10511F0712EB7
:10486000C8CFDF91CF911F910F91FF90EF90DF9014
:10487000CF90BF90AF909F908F907F900895E6E487
:10488000F1E03081208190818081829586958695A6
:104890008370307C830F269526952073820F929526
:1048A0009C70890F0895FF920F931F93CF93DF930E
:1048B000CDB7DEB728970FB6F894DEBF0FBECDBFD9
:1048C00046E069E181E00E94BC2F81E00E942E3029
:1048D0006CE17DE081E00E9403300E94022E84B7EB
:1048E00084B784B784B784B7E6E6FBE322E432E416
:1048F000318320833A968DB79EB70A97E817F90758
:10490000B8F38CED9CE09F938F9385E79CE09F9399
:104910008F930E94CFBE0E945D3B0E94D70B60E048
:1049200070E086E392E00E947F0C0E940A3AE091D8
:104930001304F091140409950E943F2490E00E9412
:10494000BA3DCE0101960E94F0250F900F900F9076
:104950000F90882341F085E59CE09F938F930E9400
:10496000CFBE0F900F9088E0FE013196AAEABBE21D
:1049700001900D928A95E1F7CE0101960E942737AA
:104980000E94FE258C010E94FA25AE014F5F5F4F09
:10499000B8010E9401330E946A250E94E7320E94FA
:1049A00002260E94493488851F928F938F811F921F
:1049B0008F938E811F928F938D811F928F938C8105
:1049C0001F928F938B811F928F938A811F928F9357
:1049D00089811F928F9380E39CE09F938F930E9425
:1049E000CFBE0E94713FE0913F04F09140040995D1
:1049F000E0913104F09132040995E0914F04F09177
:104A0000500409950E944B34F82E00914B041091EC
:104A10004C04F80109950FB6F894DEBF0FBECDBF68
:104A2000892B51F0F8010995BC0180E890E00E94C3
:104A300055B6162F072F02C010E800E00E94E4329E
:104A40001F92FF920F931F931F928F9380913E04AA
:104A50008F9380913D048F93809130048F93809148
:104A60002F048F938EEF9BE09F938F930E94CFBE76
:104A700060E070E084EB93E00E947F0C89E094E0BA
:104A80000E948B3886EF9BE09F938F930E94CFBE4E
:104A90000FB6F894DEBF0FBECDBF28960FB6F894C0
:104AA000DEBF0FBECDBFDF91CF911F910F91FF9061
:104AB00008957F936F939F938F938BE59BE09F93D4
:104AC0008F930E94CFBE0F900F900F900F900F907A
:104AD0000F9008951F93CF93DF93CDB7DEB7A097C4
:104AE0000FB6F894DEBF0FBECDBF85E090E00E9408
:104AF000CBBF182F282F35EF380F303108F0982F03
:104B00009095291709F461C080E99CE09F938F93E9
:104B10000E94CFBEE5EDFCE00F900F90DE011196F4
:104B200084918D9331968CE0ED3DF807C9F7F894A8
:104B300048E050E061E270E0CE0101960E94D1BFF2
:104B4000E7ECFCE0DE01119684918D9331968CE0C8
:104B5000E53DF807C9F74EE050E063E170E0CE01B3
:104B600001960E94D1BFEDEBFCE0DE01119684912D
:104B70008D9331968CE0E73CF807C9F74AE050E0A6
:104B800069E070E0CE0101960E94D1BF6DEC7BEA36
:104B900083E090E00E94E9BF60E070E081E090E097
:104BA0000E94E9BF60E080E090E00E94DBBF60E02F
:104BB00070E087E090E00E94E9BF1AE16AE175EEDB
:104BC00085E090E00E94E9BF7894812FA0960FB60F
:104BD000F894DEBF0FBECDBFDF91CF911F91089536
:104BE000F89448E050E061E270E00E94B3BF78942E
:104BF00080E0089583E090E00C94CBBF81E090E0EA
:104C00000C94CBBF80E090E00C94C3BF9C01FB01EF
:104C1000818581FD04C0C9010A96867F089585FFBC
:104C200003C0C90101960895FB0186819781820F17
:104C3000931F0895EEE5F1E14FEF5FEF20E030E0E4
:104C4000DF0114970D90BC91A02DAB2B59F0A081E2
:104C5000A11101C0A9012F5F3F4F3A9624303105C1
:104C600079F723C0A9012AE0249FF001259FF00DC8
:104C70001124EA5AFE4E938382838FEF9FEF918334
:104C80008083DB0116968D919C9117979583848381
:104C9000118619968C9183FF02C081E081878FEF86
:104CA0009FEF97838683CF0108954F3FBFEF5B0748
:104CB000D1F680E090E008950F931F93CF93DF9398
:104CC0008C01EB01AB01662757FD6095762F4C5F99
:104CD0005F4F6F4F7F4FCA0126E0880F991F2A95BB
:104CE000E1F74AE150E0B8010E94572FF8018185B1
:104CF00081FF10C082FD0EC0817261F4DF93CF93FB
:104D000088EE9CE09F938F930E94BDBE0F900F9002
:104D10000F900F90DF91CF911F910F910895CF9237
:104D2000DF92EF92FF920F931F93CF93DF93CDB754
:104D3000DEB76A970FB6F894DEBF0FBECDBF6C0129
:104D400038E5E32E31E1F32E00E010E0F701828137
:104D50009381892BF1F060817181CE0101960E94CF
:104D60005C268A8581FF15C082FD13C0807389F49B
:104D7000BE01655F7F4FC6010E945ABD892B49F471
:104D80002AE0209FC001219F900D11248A5A9E4E37
:104D900031C00F5F1F4FFAE0EF0EF11C0430110518
:104DA000A9F600E010E0B801CE0101960E945C2651
:104DB0008A8581FF13C082FD11C0807379F4BE0122
:104DC000655F7F4FC6010E945ABD892B39F4BE0131
:104DD0006F5F7F4FC8010E941A260CC0BE016F5F33
:104DE0007F4FC8010E9406268C018C339105DCF2AE
:104DF00080E090E06A960FB6F894DEBF0FBECDBF9C
:104E0000DF91CF911F910F91FF90EF90DF90CF90A6
:104E10000895CF92DF92EF92FF920F931F93CF935B
:104E2000DF93CDB7DEB76A970FB6F894DEBF0FBE3B
:104E3000CDBF6C01E090A611F090A7110FEF1FEF0E
:104E40008CE3E816F1048CF4B701CE0101960E94C0
:104E50005C268A8581FD26C00F3F8FEF180749F435
:104E6000C7018C0D9D1DCC971CF08FEF9FEF23C0C9
:104E70008701BE016F5F7F4FC7010E9406267C013C
:104E8000C8018C0D9D1DE816F906D4F22091A611DB
:104E90003091A7110217130769F49093A71180931B
:104EA000A61108C0BE016F5F7F4FC7010E94062692
:104EB0007C01C4CFC8016A960FB6F894DEBF0FBE5E
:104EC000CDBFDF91CF911F910F91FF90EF90DF90B9
:104ED000CF900895CF92DF92EF92FF920F931F939E
:104EE000CF93DF93CDB7DEB7CA55D1090FB6F8948B
:104EF000DEBF0FBECDBF7C01BC01CE018F5B9F4FDB
:104F00000E945C2629960EAD1FAD2997015011090C
:104F1000A801662757FD6095762F4C5F5F4F6F4F56
:104F20007F4FC701AA2797FDA095BA2F480F591F99
:104F30006A1F7B1F6A0156E0CC0CDD1C5A95E1F715
:104F4000E12CF12C17FD18C040E450E0BE016F5F6A
:104F50007F4FC7018C0D9D1D0E94572FFE01EF5BF7
:104F6000FF4F8FE390E02291222391F0011511056C
:104F700031F48A31910518F480E090E011C049972E
:104F800046E0000F111F4A95E1F7800F911F08C0FE
:104F9000019748F70150110980E4E81AF108D2CFCF
:104FA000C65ADF4F0FB6F894DEBF0FBECDBFDF91FC
:104FB000CF911F910F91FF90EF90DF90CF900895C8
:104FC000FC01818581608187AB01662757FD609573
:104FD000762F4C5F5F4F6F4F7F4FCA0166E0880F9F
:104FE000991F6A95E1F74AE150E0BF010C94502FF8
:104FF000CF92DF92EF92FF920F931F93CF93DF93A5
:10500000CDB7DEB76A970FB6F894DEBF0FBECDBF3F
:105010008C016B017A01BC01CE0101960E945C26D5
:105020008A8581FD03C08FEF9FEF4FC0982F947248
:10503000D1F7CD2869F48A8584608A87B801CE01CA
:1050400001960E94E0271092A811EF2871F41BC06E
:1050500083FFF1CF40E050E060E070E089819A8109
:105060000E94F82797FFE7CFDECFE2E8F1E1DF010A
:1050700012970D90BC91A02D109761F4359621E107
:10508000EA3AF207A1F7E8E5F1E1AEE5B1E18FEF29
:105090009FEF09C012968D919C91139780179107ED
:1050A00069F71082EBCF208131812017310729F475
:1050B000918380831C92138212823A961A9621E180
:1050C000E038F20781F780E090E06A960FB6F89436
:1050D000DEBF0FBECDBFDF91CF911F910F91FF902B
:1050E000EF90DF90CF9008952F923F924F925F9272
:1050F0006F927F928F929F92AF92BF92CF92DF92E8
:10510000EF92FF920F931F93CF93DF93CDB7DEB74C
:10511000A6970FB6F894DEBF0FBECDBF8DA39EA39A
:10512000562E472E452B59F0852D942D0E94092788
:105130008C018F3F2FEF920709F049C107C08DA165
:105140009EA10E948F26892B79F377C18091A811A7
:10515000811173C184E09DE09F938F938BE09DE06C
:105160009F938F930E94BDBE0F900F900F900F9052
:10517000612C712C00E010E0CE014B969AA389A31C
:10518000DE011196BCA3ABA37AE0872E912CE9A196
:10519000FAA126E011922A95E9F70115110531F4DB
:1051A00010925511109254111092531113018AE06C
:1051B000280E311C80915311C0905411D09055117C
:1051C000882379F056019AE0C916D104F4F09C8E38
:1051D0008B8EAAE0CA1AD108D0925511C0925411F0
:1051E00073C07601BAE0CB16D10494F09E8E8D8EFA
:1051F000EAE0CE1AD108D0925511C0925411FAE0CB
:10520000CF16D1040CF462C05FC0E12CF12C02C0B7
:10521000A12CB12CC60CD71CC214D3046CF5B6015A
:10522000CE0101960E945C26109253118A8581FF5F
:105230000DC0982F947251F421E0209353118F8167
:105240009885C80ED91EA80EB91EE6CF85FF07C0E7
:105250008FEFC81AD80A9FEFE91AF90ADDCF82FF4B
:1052600007C08F819885C80ED91EE80EF91ED4CFCD
:10527000C1018C199D0902C080E090E06501CE0C4F
:10528000DF1CC80ED91EAAE0CA1AD108D092551147
:10529000C0925411209153111C141D044CF422236C
:1052A00021F05401AE18BF0803C07401EA18FB08CE
:1052B000BC8EAB8EFE8EED8E98A38F8F211104C015
:1052C000BAE0CB16D10414F0C12CD12C88A18F9355
:1052D0008F8D8F938E8D8F938D8D8F938C8D8F93DC
:1052E0008B8D8F931F930F93A9E4BDE0BF93AF9372
:1052F0000E94BDBE0FB6F894DEBF0FBECDBF8B8D32
:105300009C8D181619060CF44EC08D8D9E8D1816A6
:1053100019060CF048C08091A6119091A71168164B
:10532000790624F47092A7116092A6111C141D0432
:105330005CF5ABA1BCA1EAE11D92EA95E9F7F2E2C6
:10534000FA87E12CF12CB1016E0D7F1DCE01019683
:105350000E94E0272FEFE21AF20AEC14FD0499F7FD
:10536000C101B4010E9469B67F936F93FF92EF92DF
:10537000ABE8BDE0BF93AF930E94BDBE0F900F900E
:105380000F900F900F900F90C8010E943D6F1F93D8
:105390000F93ACEBBDE0BF93AF930E94BDBE0F90E7
:1053A0000F900F900F900F5F1F4F0630110511F0F7
:1053B0003101EDCE852D942D0E9409278C018F3F60
:1053C000FFEF9F0721F481E08093A81136C0CE0142
:1053D00001967C018AE1D7011D928A95E9F78FE059
:1053E000EDA1FEA1DE011B9601900D928A95E1F7D9
:1053F0005F82488682E08A87B801C7010E94E02761
:105400002EA12F932DA12F931F930F934F925F9255
:1054100087ED9DE09F938F930E94BDBEB701C801A9
:105420000E941A26FC010FB6F894DEBF0FBECDBF56
:10543000009719F01182108202C080E090E0A696D9
:105440000FB6F894DEBF0FBECDBFDF91CF911F9195
:105450000F91FF90EF90DF90CF90BF90AF909F9013
:105460008F907F906F905F904F903F902F90089516
:10547000AF92BF92CF92DF92EF92FF920F931F9362
:10548000CF93DF935C016B01E2E8F1E100E010E013
:105490008081882359F00F5F1F4F35960830110522
:1054A000B9F78FE09EE00E94F9BE16C085E0809FAC
:1054B000E001819FD00D1124C258DE4E1C82C5012F
:1054C0000E948F267C019B838A830097B9F4C601D2
:1054D00083709927019719F48FEF9FEF2EC041E059
:1054E00050E065E070E0C5010E9474289B838A83C8
:1054F000009791F3FC01118210820DC0FC018081A4
:105500009181019641F4F701828193810E946A277B
:10551000F701918380838C818C298C83EA81FB81C4
:10552000C2FE03C08081918102C080E090E0998337
:10553000888380858F5F8087C801DF91CF911F911D
:105540000F91FF90EF90DF90CF90BF90AF900895B4
:1055500088309105B0F425E0289FF001299FF00DD7
:105560001124EA5AFE4E84A5882359F014A6A2A558
:10557000B3A518968C911897815018968C9313A602
:1055800012A60895CF93DF939B018830910508F010
:1055900047C065E0689FF001699FF00D1124DF01AD
:1055A000AA5ABE4E9C968C918823D1F1E258FE4EA9
:1055B0004115510579F04230510529F4A281B3819A
:1055C0008D919C9105C04130510551F580819181AB
:1055D000280F391F37FD24C0C281D3818C819D8162
:1055E000AA2797FDA095BA2F46E0880F991FAA1FFA
:1055F000BB1F4A95D1F7A901662757FD6095762F05
:1056000084179507A607B70758F0888199818217F4
:10561000930714F43983288331832083C90102C09E
:105620008FEF9FEFDF91CF9108950E948F26009713
:1056300049F041E050E061E070E0FC01828193813B
:105640000C94F8278FEF9FEF08950F931F93CF933C
:10565000DF93EA0188309105D8F525E0289F800185
:10566000299F100D1124F801EA5AFE4E84A58823C3
:1056700079F180FF2DC002581E4ED8011296ED918F
:10568000FC9113972D913C9180819181420F531F82
:105690008417950718F4EC01C21BD30B818580FD9C
:1056A00015C08281938156E0880F991F5A95E1F7C2
:1056B000820F931FAE01865E9E4F0E94572FF80106
:1056C000808191818C0F9D1F91838083CE0102C0C8
:1056D0008FEF9FEFDF91CF911F910F9108952F9240
:1056E0003F924F925F926F927F928F929F92AF9272
:1056F000BF92CF92DF92EF92FF920F931F93CF93BF
:10570000DF93CDB7DEB7EA970FB6F894DEBF0FBED2
:10571000CDBF7EAB6DAB7A012DB73EB738AF2FABA7
:105720008830910518F08FEF9FEF43C145E0489F07
:105730009001499F300D1124F901EA5AFE4E84A5CB
:10574000882389F381FFEFCFC90182589E4E6C01F7
:10575000DC0112960D911C911397D6018D919C91AD
:105760009C01265E3F4FF801448155814701820E1E
:10577000931EA12CB12C662757FD6095762FA6E0CD
:10578000440F551F661F771FAA95D1F74815590575
:105790006A057B0508F0E7C0F80182809380B401B8
:1057A000CE014B960E945C2661E070E0CE018596AA
:1057B0000E94382A5C0197FDBCC069A17AA1660FDE
:1057C000771F41E050E0CE0185960E9474288C013D
:1057D000009709F488C0612C712C4DB65EB64F8DD0
:1057E00058A14115510521F440E450E060E070E01B
:1057F0002DB73EB7241B350B0FB6F8943EBF0FBE36
:105800002DBF2F5F3F4FB901C50129AF3AAF0E94AD
:10581000252B1C0129AD3AAD97FF14C040E050E0A4
:1058200060E070E0D80112968D919C9113970E94D0
:10583000F827C5010E94A82A0FB6F8945EBE0FBED5
:105840004DBE77C0009791F0F80182819381B6E058
:10585000880F991FBA95E1F7860D971DA101B9012F
:10586000865E9E4F0E94502F620C731C0FB6F894F8
:105870005EBE0FBE4DBE232809F0AFCF22E831E156
:10588000E0E8F1E1D9018C91882399F08081918140
:10589000DC0112968D919C9113978815990549F416
:1058A00011830083D80118968C9118978F5F1896F2
:1058B0008C932B5F3F4F3596B1E1E83AFB0711F728
:1058C00040E050E061E070E0C4010E94F827F80178
:1058D0002281338197FF0BC040E050E060E070E030
:1058E000C9010E94F827C5010E94A82A22C0B90157
:1058F000CE0101960E945C268F8D98A19E838D8398
:105900008D8D9E8D9C838B83D80112966D917C9199
:105910001397CE0101960E94E027F80181858E7FC2
:10592000818771826082C5010E94A82A80E090E090
:1059300002C08FEF9FEF019609F4F5CED6011296C3
:105940000D911C911397F80183818F9382818F931E
:10595000A1E4BEE0BF93AF930E94BDBE0F900F9035
:105960000F900F90FACE40815181841795070CF467
:10597000DACE8281938166E0880F991F6A95E1F7FC
:10598000820F931FA7016DA97EA993950E94502FA6
:10599000D6018D919C9111978E0D9F1D8D939C9397
:1059A000F801208131812817390714F4918380830D
:1059B000C7012FA938AD0FB6F8943EBF0FBE2DBF5B
:1059C000EA960FB6F894DEBF0FBECDBFDF91CF9140
:1059D0001F910F91FF90EF90DF90CF90BF90AF900D
:1059E0009F908F907F906F905F904F903F902F90FF
:1059F0000895FC011182108280E090E00895CF921A
:105A0000DF92EF92FF920F931F93CF93DF93CDB767
:105A1000DEB76A970FB6F894DEBF0FBECDBF6C013C
:105A20007B01FC01008111810C33110584F5B80163
:105A3000CE0101960E945C268A8581FF20C082FDEE
:105A40001EC08073E1F480E2FE013B96D701019015
:105A50000D928A95E1F7F701178EC8010E946A2717
:105A6000F70191A380A3BE016F5F7F4FC8010E9421
:105A70000626F6019183808380E090E00AC0BE0193
:105A80006F5F7F4FC8010E9406268C01CDCF8FEF3C
:105A90009FEF6A960FB6F894DEBF0FBECDBFDF91C1
:105AA000CF911F910F91FF90EF90DF90CF900895CD
:105AB00008950F931F93665E7F4F8B0120E030E0C7
:105AC000015C1F4F2F4F3F4F46E0369527951795A6
:105AD00007954A95D1F740E050E0B8010E9474283C
